{
	"project-07/contracts/project.sol": {
		"BookRental": {
			"abi": [
				{
					"anonymous": false,
					"inputs": [
						{
							"indexed": true,
							"internalType": "uint256",
							"name": "bookId",
							"type": "uint256"
						},
						{
							"indexed": true,
							"internalType": "address",
							"name": "owner",
							"type": "address"
						},
						{
							"indexed": false,
							"internalType": "string",
							"name": "title",
							"type": "string"
						},
						{
							"indexed": false,
							"internalType": "string",
							"name": "author",
							"type": "string"
						},
						{
							"indexed": false,
							"internalType": "uint256",
							"name": "rentalPrice",
							"type": "uint256"
						}
					],
					"name": "BookAdded",
					"type": "event"
				},
				{
					"anonymous": false,
					"inputs": [
						{
							"indexed": true,
							"internalType": "uint256",
							"name": "bookId",
							"type": "uint256"
						},
						{
							"indexed": true,
							"internalType": "address",
							"name": "renter",
							"type": "address"
						},
						{
							"indexed": false,
							"internalType": "uint256",
							"name": "rentedUntil",
							"type": "uint256"
						}
					],
					"name": "BookRented",
					"type": "event"
				},
				{
					"inputs": [
						{
							"internalType": "string",
							"name": "_title",
							"type": "string"
						},
						{
							"internalType": "string",
							"name": "_author",
							"type": "string"
						},
						{
							"internalType": "uint256",
							"name": "_rentalPrice",
							"type": "uint256"
						}
					],
					"name": "addBook",
					"outputs": [
						{
							"internalType": "uint256",
							"name": "",
							"type": "uint256"
						}
					],
					"stateMutability": "nonpayable",
					"type": "function"
				},
				{
					"inputs": [
						{
							"internalType": "uint256",
							"name": "",
							"type": "uint256"
						}
					],
					"name": "books",
					"outputs": [
						{
							"internalType": "address",
							"name": "owner",
							"type": "address"
						},
						{
							"internalType": "string",
							"name": "title",
							"type": "string"
						},
						{
							"internalType": "string",
							"name": "author",
							"type": "string"
						},
						{
							"internalType": "bool",
							"name": "isAvailable",
							"type": "bool"
						},
						{
							"internalType": "uint256",
							"name": "rentalPrice",
							"type": "uint256"
						},
						{
							"internalType": "address",
							"name": "currentRenter",
							"type": "address"
						},
						{
							"internalType": "uint256",
							"name": "rentedUntil",
							"type": "uint256"
						}
					],
					"stateMutability": "view",
					"type": "function"
				},
				{
					"inputs": [
						{
							"internalType": "address",
							"name": "",
							"type": "address"
						},
						{
							"internalType": "uint256",
							"name": "",
							"type": "uint256"
						}
					],
					"name": "ownerBooks",
					"outputs": [
						{
							"internalType": "uint256",
							"name": "",
							"type": "uint256"
						}
					],
					"stateMutability": "view",
					"type": "function"
				},
				{
					"inputs": [
						{
							"internalType": "uint256",
							"name": "_bookId",
							"type": "uint256"
						},
						{
							"internalType": "uint256",
							"name": "_rentalDays",
							"type": "uint256"
						}
					],
					"name": "rentBook",
					"outputs": [],
					"stateMutability": "payable",
					"type": "function"
				}
			],
			"devdoc": {
				"kind": "dev",
				"methods": {},
				"version": 1
			},
			"evm": {
				"assembly": "    /* \"project-07/contracts/project.sol\":57:3055  contract BookRental {... */\n  mstore(0x40, 0x80)\n  callvalue\n  dup1\n  iszero\n  tag_1\n  jumpi\n  0x00\n  dup1\n  revert\ntag_1:\n  pop\n  dataSize(sub_0)\n  dup1\n  dataOffset(sub_0)\n  0x00\n  codecopy\n  0x00\n  return\nstop\n\nsub_0: assembly {\n        /* \"project-07/contracts/project.sol\":57:3055  contract BookRental {... */\n      mstore(0x40, 0x80)\n      jumpi(tag_1, lt(calldatasize, 0x04))\n      shr(0xe0, calldataload(0x00))\n      dup1\n      0x04266224\n      eq\n      tag_2\n      jumpi\n      dup1\n      0x29646ee9\n      eq\n      tag_3\n      jumpi\n      dup1\n      0x68744046\n      eq\n      tag_4\n      jumpi\n      dup1\n      0xd43a4276\n      eq\n      tag_5\n      jumpi\n    tag_1:\n      0x00\n      dup1\n      revert\n        /* \"project-07/contracts/project.sol\":922:1967  function addBook(... */\n    tag_2:\n      callvalue\n      dup1\n      iszero\n      tag_6\n      jumpi\n      0x00\n      dup1\n      revert\n    tag_6:\n      pop\n      tag_7\n      0x04\n      dup1\n      calldatasize\n      sub\n      dup2\n      add\n      swap1\n      tag_8\n      swap2\n      swap1\n      tag_9\n      jump\t// in\n    tag_8:\n      tag_10\n      jump\t// in\n    tag_7:\n      mload(0x40)\n      tag_11\n      swap2\n      swap1\n      tag_12\n      jump\t// in\n    tag_11:\n      mload(0x40)\n      dup1\n      swap2\n      sub\n      swap1\n      return\n        /* \"project-07/contracts/project.sol\":433:480  mapping(address => uint256[]) public ownerBooks */\n    tag_3:\n      callvalue\n      dup1\n      iszero\n      tag_13\n      jumpi\n      0x00\n      dup1\n      revert\n    tag_13:\n      pop\n      tag_14\n      0x04\n      dup1\n      calldatasize\n      sub\n      dup2\n      add\n      swap1\n      tag_15\n      swap2\n      swap1\n      tag_16\n      jump\t// in\n    tag_15:\n      tag_17\n      jump\t// in\n    tag_14:\n      mload(0x40)\n      tag_18\n      swap2\n      swap1\n      tag_12\n      jump\t// in\n    tag_18:\n      mload(0x40)\n      dup1\n      swap2\n      sub\n      swap1\n      return\n        /* \"project-07/contracts/project.sol\":357:376  Book[] public books */\n    tag_4:\n      callvalue\n      dup1\n      iszero\n      tag_19\n      jumpi\n      0x00\n      dup1\n      revert\n    tag_19:\n      pop\n      tag_20\n      0x04\n      dup1\n      calldatasize\n      sub\n      dup2\n      add\n      swap1\n      tag_21\n      swap2\n      swap1\n      tag_22\n      jump\t// in\n    tag_21:\n      tag_23\n      jump\t// in\n    tag_20:\n      mload(0x40)\n      tag_24\n      swap8\n      swap7\n      swap6\n      swap5\n      swap4\n      swap3\n      swap2\n      swap1\n      tag_25\n      jump\t// in\n    tag_24:\n      mload(0x40)\n      dup1\n      swap2\n      sub\n      swap1\n      return\n        /* \"project-07/contracts/project.sol\":2004:3053  function rentBook(uint256 _bookId, uint256 _rentalDays) public payable {... */\n    tag_5:\n      tag_26\n      0x04\n      dup1\n      calldatasize\n      sub\n      dup2\n      add\n      swap1\n      tag_27\n      swap2\n      swap1\n      tag_28\n      jump\t// in\n    tag_27:\n      tag_29\n      jump\t// in\n    tag_26:\n      stop\n        /* \"project-07/contracts/project.sol\":922:1967  function addBook(... */\n    tag_10:\n        /* \"project-07/contracts/project.sol\":1054:1061  uint256 */\n      0x00\n        /* \"project-07/contracts/project.sol\":1141:1142  0 */\n      dup1\n        /* \"project-07/contracts/project.sol\":1124:1130  _title */\n      dup5\n        /* \"project-07/contracts/project.sol\":1118:1138  bytes(_title).length */\n      mload\n        /* \"project-07/contracts/project.sol\":1118:1142  bytes(_title).length > 0 */\n      gt\n        /* \"project-07/contracts/project.sol\":1110:1168  require(bytes(_title).length > 0, \"Title cannot be empty\") */\n      tag_31\n      jumpi\n      mload(0x40)\n      0x08c379a000000000000000000000000000000000000000000000000000000000\n      dup2\n      mstore\n      0x04\n      add\n      tag_32\n      swap1\n      tag_33\n      jump\t// in\n    tag_32:\n      mload(0x40)\n      dup1\n      swap2\n      sub\n      swap1\n      revert\n    tag_31:\n        /* \"project-07/contracts/project.sol\":1210:1211  0 */\n      0x00\n        /* \"project-07/contracts/project.sol\":1192:1199  _author */\n      dup4\n        /* \"project-07/contracts/project.sol\":1186:1207  bytes(_author).length */\n      mload\n        /* \"project-07/contracts/project.sol\":1186:1211  bytes(_author).length > 0 */\n      gt\n        /* \"project-07/contracts/project.sol\":1178:1238  require(bytes(_author).length > 0, \"Author cannot be empty\") */\n      tag_34\n      jumpi\n      mload(0x40)\n      0x08c379a000000000000000000000000000000000000000000000000000000000\n      dup2\n      mstore\n      0x04\n      add\n      tag_35\n      swap1\n      tag_36\n      jump\t// in\n    tag_35:\n      mload(0x40)\n      dup1\n      swap2\n      sub\n      swap1\n      revert\n    tag_34:\n        /* \"project-07/contracts/project.sol\":1271:1272  0 */\n      0x00\n        /* \"project-07/contracts/project.sol\":1256:1268  _rentalPrice */\n      dup3\n        /* \"project-07/contracts/project.sol\":1256:1272  _rentalPrice > 0 */\n      gt\n        /* \"project-07/contracts/project.sol\":1248:1315  require(_rentalPrice > 0, \"Rental price must be greater than zero\") */\n      tag_37\n      jumpi\n      mload(0x40)\n      0x08c379a000000000000000000000000000000000000000000000000000000000\n      dup2\n      mstore\n      0x04\n      add\n      tag_38\n      swap1\n      tag_39\n      jump\t// in\n    tag_38:\n      mload(0x40)\n      dup1\n      swap2\n      sub\n      swap1\n      revert\n    tag_37:\n        /* \"project-07/contracts/project.sol\":1353:1372  Book memory newBook */\n      0x00\n        /* \"project-07/contracts/project.sol\":1375:1615  Book({... */\n      mload(0x40)\n      dup1\n      0xe0\n      add\n      0x40\n      mstore\n      dup1\n        /* \"project-07/contracts/project.sol\":1401:1411  msg.sender */\n      caller\n        /* \"project-07/contracts/project.sol\":1375:1615  Book({... */\n      0xffffffffffffffffffffffffffffffffffffffff\n      and\n      dup2\n      mstore\n      0x20\n      add\n        /* \"project-07/contracts/project.sol\":1432:1438  _title */\n      dup7\n        /* \"project-07/contracts/project.sol\":1375:1615  Book({... */\n      dup2\n      mstore\n      0x20\n      add\n        /* \"project-07/contracts/project.sol\":1460:1467  _author */\n      dup6\n        /* \"project-07/contracts/project.sol\":1375:1615  Book({... */\n      dup2\n      mstore\n      0x20\n      add\n        /* \"project-07/contracts/project.sol\":1494:1498  true */\n      0x01\n        /* \"project-07/contracts/project.sol\":1375:1615  Book({... */\n      iszero\n      iszero\n      dup2\n      mstore\n      0x20\n      add\n        /* \"project-07/contracts/project.sol\":1525:1537  _rentalPrice */\n      dup5\n        /* \"project-07/contracts/project.sol\":1375:1615  Book({... */\n      dup2\n      mstore\n      0x20\n      add\n        /* \"project-07/contracts/project.sol\":1574:1575  0 */\n      0x00\n        /* \"project-07/contracts/project.sol\":1375:1615  Book({... */\n      0xffffffffffffffffffffffffffffffffffffffff\n      and\n      dup2\n      mstore\n      0x20\n      add\n        /* \"project-07/contracts/project.sol\":1603:1604  0 */\n      0x00\n        /* \"project-07/contracts/project.sol\":1375:1615  Book({... */\n      dup2\n      mstore\n      pop\n        /* \"project-07/contracts/project.sol\":1353:1615  Book memory newBook = Book({... */\n      swap1\n      pop\n        /* \"project-07/contracts/project.sol\":1674:1688  uint256 bookId */\n      0x00\n        /* \"project-07/contracts/project.sol\":1691:1696  books */\n      dup1\n        /* \"project-07/contracts/project.sol\":1691:1703  books.length */\n      dup1\n      sload\n      swap1\n      pop\n        /* \"project-07/contracts/project.sol\":1674:1703  uint256 bookId = books.length */\n      swap1\n      pop\n        /* \"project-07/contracts/project.sol\":1713:1718  books */\n      0x00\n        /* \"project-07/contracts/project.sol\":1724:1731  newBook */\n      dup3\n        /* \"project-07/contracts/project.sol\":1713:1732  books.push(newBook) */\n      swap1\n      dup1\n      0x01\n      dup2\n      sload\n      add\n      dup1\n      dup3\n      sstore\n      dup1\n      swap2\n      pop\n      pop\n      0x01\n      swap1\n      sub\n      swap1\n      0x00\n      mstore\n      keccak256(0x00, 0x20)\n      swap1\n      0x07\n      mul\n      add\n      0x00\n      swap1\n      swap2\n      swap1\n      swap2\n      swap1\n      swap2\n      pop\n      0x00\n      dup3\n      add\n      mload\n      dup2\n      0x00\n      add\n      exp(0x0100, 0x00)\n      dup2\n      sload\n      dup2\n      0xffffffffffffffffffffffffffffffffffffffff\n      mul\n      not\n      and\n      swap1\n      dup4\n      0xffffffffffffffffffffffffffffffffffffffff\n      and\n      mul\n      or\n      swap1\n      sstore\n      pop\n      0x20\n      dup3\n      add\n      mload\n      dup2\n      0x01\n      add\n      swap1\n      dup2\n      tag_41\n      swap2\n      swap1\n      tag_42\n      jump\t// in\n    tag_41:\n      pop\n      0x40\n      dup3\n      add\n      mload\n      dup2\n      0x02\n      add\n      swap1\n      dup2\n      tag_43\n      swap2\n      swap1\n      tag_42\n      jump\t// in\n    tag_43:\n      pop\n      0x60\n      dup3\n      add\n      mload\n      dup2\n      0x03\n      add\n      exp(0x0100, 0x00)\n      dup2\n      sload\n      dup2\n      0xff\n      mul\n      not\n      and\n      swap1\n      dup4\n      iszero\n      iszero\n      mul\n      or\n      swap1\n      sstore\n      pop\n      0x80\n      dup3\n      add\n      mload\n      dup2\n      0x04\n      add\n      sstore\n      0xa0\n      dup3\n      add\n      mload\n      dup2\n      0x05\n      add\n      exp(0x0100, 0x00)\n      dup2\n      sload\n      dup2\n      0xffffffffffffffffffffffffffffffffffffffff\n      mul\n      not\n      and\n      swap1\n      dup4\n      0xffffffffffffffffffffffffffffffffffffffff\n      and\n      mul\n      or\n      swap1\n      sstore\n      pop\n      0xc0\n      dup3\n      add\n      mload\n      dup2\n      0x06\n      add\n      sstore\n      pop\n      pop\n        /* \"project-07/contracts/project.sol\":1785:1795  ownerBooks */\n      0x01\n        /* \"project-07/contracts/project.sol\":1785:1807  ownerBooks[msg.sender] */\n      0x00\n        /* \"project-07/contracts/project.sol\":1796:1806  msg.sender */\n      caller\n        /* \"project-07/contracts/project.sol\":1785:1807  ownerBooks[msg.sender] */\n      0xffffffffffffffffffffffffffffffffffffffff\n      and\n      0xffffffffffffffffffffffffffffffffffffffff\n      and\n      dup2\n      mstore\n      0x20\n      add\n      swap1\n      dup2\n      mstore\n      0x20\n      add\n      0x00\n      keccak256\n        /* \"project-07/contracts/project.sol\":1813:1819  bookId */\n      dup2\n        /* \"project-07/contracts/project.sol\":1785:1820  ownerBooks[msg.sender].push(bookId) */\n      swap1\n      dup1\n      0x01\n      dup2\n      sload\n      add\n      dup1\n      dup3\n      sstore\n      dup1\n      swap2\n      pop\n      pop\n      0x01\n      swap1\n      sub\n      swap1\n      0x00\n      mstore\n      keccak256(0x00, 0x20)\n      add\n      0x00\n      swap1\n      swap2\n      swap1\n      swap2\n      swap1\n      swap2\n      pop\n      sstore\n        /* \"project-07/contracts/project.sol\":1894:1904  msg.sender */\n      caller\n        /* \"project-07/contracts/project.sol\":1876:1936  BookAdded(bookId, msg.sender, _title, _author, _rentalPrice) */\n      0xffffffffffffffffffffffffffffffffffffffff\n      and\n        /* \"project-07/contracts/project.sol\":1886:1892  bookId */\n      dup2\n        /* \"project-07/contracts/project.sol\":1876:1936  BookAdded(bookId, msg.sender, _title, _author, _rentalPrice) */\n      0x0ce4df713f464f071c2a16d0eed871906db63a39cd7b7353cb4102ff1343667f\n        /* \"project-07/contracts/project.sol\":1906:1912  _title */\n      dup9\n        /* \"project-07/contracts/project.sol\":1914:1921  _author */\n      dup9\n        /* \"project-07/contracts/project.sol\":1923:1935  _rentalPrice */\n      dup9\n        /* \"project-07/contracts/project.sol\":1876:1936  BookAdded(bookId, msg.sender, _title, _author, _rentalPrice) */\n      mload(0x40)\n      tag_45\n      swap4\n      swap3\n      swap2\n      swap1\n      tag_46\n      jump\t// in\n    tag_45:\n      mload(0x40)\n      dup1\n      swap2\n      sub\n      swap1\n      log3\n        /* \"project-07/contracts/project.sol\":1954:1960  bookId */\n      dup1\n        /* \"project-07/contracts/project.sol\":1947:1960  return bookId */\n      swap3\n      pop\n      pop\n      pop\n        /* \"project-07/contracts/project.sol\":922:1967  function addBook(... */\n      swap4\n      swap3\n      pop\n      pop\n      pop\n      jump\t// out\n        /* \"project-07/contracts/project.sol\":433:480  mapping(address => uint256[]) public ownerBooks */\n    tag_17:\n      mstore(0x20, 0x01)\n      dup2\n      0x00\n      mstore\n      keccak256(0x00, 0x40)\n      dup2\n      dup2\n      sload\n      dup2\n      lt\n      tag_47\n      jumpi\n      0x00\n      dup1\n      revert\n    tag_47:\n      swap1\n      0x00\n      mstore\n      keccak256(0x00, 0x20)\n      add\n      0x00\n      swap2\n      pop\n      swap2\n      pop\n      pop\n      sload\n      dup2\n      jump\t// out\n        /* \"project-07/contracts/project.sol\":357:376  Book[] public books */\n    tag_23:\n      0x00\n      dup2\n      dup2\n      sload\n      dup2\n      lt\n      tag_49\n      jumpi\n      0x00\n      dup1\n      revert\n    tag_49:\n      swap1\n      0x00\n      mstore\n      keccak256(0x00, 0x20)\n      swap1\n      0x07\n      mul\n      add\n      0x00\n      swap2\n      pop\n      swap1\n      pop\n      dup1\n      0x00\n      add\n      0x00\n      swap1\n      sload\n      swap1\n      0x0100\n      exp\n      swap1\n      div\n      0xffffffffffffffffffffffffffffffffffffffff\n      and\n      swap1\n      dup1\n      0x01\n      add\n      dup1\n      sload\n      tag_51\n      swap1\n      tag_52\n      jump\t// in\n    tag_51:\n      dup1\n      0x1f\n      add\n      0x20\n      dup1\n      swap2\n      div\n      mul\n      0x20\n      add\n      mload(0x40)\n      swap1\n      dup2\n      add\n      0x40\n      mstore\n      dup1\n      swap3\n      swap2\n      swap1\n      dup2\n      dup2\n      mstore\n      0x20\n      add\n      dup3\n      dup1\n      sload\n      tag_53\n      swap1\n      tag_52\n      jump\t// in\n    tag_53:\n      dup1\n      iszero\n      tag_54\n      jumpi\n      dup1\n      0x1f\n      lt\n      tag_55\n      jumpi\n      0x0100\n      dup1\n      dup4\n      sload\n      div\n      mul\n      dup4\n      mstore\n      swap2\n      0x20\n      add\n      swap2\n      jump(tag_54)\n    tag_55:\n      dup3\n      add\n      swap2\n      swap1\n      0x00\n      mstore\n      keccak256(0x00, 0x20)\n      swap1\n    tag_56:\n      dup2\n      sload\n      dup2\n      mstore\n      swap1\n      0x01\n      add\n      swap1\n      0x20\n      add\n      dup1\n      dup4\n      gt\n      tag_56\n      jumpi\n      dup3\n      swap1\n      sub\n      0x1f\n      and\n      dup3\n      add\n      swap2\n    tag_54:\n      pop\n      pop\n      pop\n      pop\n      pop\n      swap1\n      dup1\n      0x02\n      add\n      dup1\n      sload\n      tag_57\n      swap1\n      tag_52\n      jump\t// in\n    tag_57:\n      dup1\n      0x1f\n      add\n      0x20\n      dup1\n      swap2\n      div\n      mul\n      0x20\n      add\n      mload(0x40)\n      swap1\n      dup2\n      add\n      0x40\n      mstore\n      dup1\n      swap3\n      swap2\n      swap1\n      dup2\n      dup2\n      mstore\n      0x20\n      add\n      dup3\n      dup1\n      sload\n      tag_58\n      swap1\n      tag_52\n      jump\t// in\n    tag_58:\n      dup1\n      iszero\n      tag_59\n      jumpi\n      dup1\n      0x1f\n      lt\n      tag_60\n      jumpi\n      0x0100\n      dup1\n      dup4\n      sload\n      div\n      mul\n      dup4\n      mstore\n      swap2\n      0x20\n      add\n      swap2\n      jump(tag_59)\n    tag_60:\n      dup3\n      add\n      swap2\n      swap1\n      0x00\n      mstore\n      keccak256(0x00, 0x20)\n      swap1\n    tag_61:\n      dup2\n      sload\n      dup2\n      mstore\n      swap1\n      0x01\n      add\n      swap1\n      0x20\n      add\n      dup1\n      dup4\n      gt\n      tag_61\n      jumpi\n      dup3\n      swap1\n      sub\n      0x1f\n      and\n      dup3\n      add\n      swap2\n    tag_59:\n      pop\n      pop\n      pop\n      pop\n      pop\n      swap1\n      dup1\n      0x03\n      add\n      0x00\n      swap1\n      sload\n      swap1\n      0x0100\n      exp\n      swap1\n      div\n      0xff\n      and\n      swap1\n      dup1\n      0x04\n      add\n      sload\n      swap1\n      dup1\n      0x05\n      add\n      0x00\n      swap1\n      sload\n      swap1\n      0x0100\n      exp\n      swap1\n      div\n      0xffffffffffffffffffffffffffffffffffffffff\n      and\n      swap1\n      dup1\n      0x06\n      add\n      sload\n      swap1\n      pop\n      dup8\n      jump\t// out\n        /* \"project-07/contracts/project.sol\":2004:3053  function rentBook(uint256 _bookId, uint256 _rentalDays) public payable {... */\n    tag_29:\n        /* \"project-07/contracts/project.sol\":2152:2157  books */\n      0x00\n        /* \"project-07/contracts/project.sol\":2152:2164  books.length */\n      dup1\n      sload\n      swap1\n      pop\n        /* \"project-07/contracts/project.sol\":2142:2149  _bookId */\n      dup3\n        /* \"project-07/contracts/project.sol\":2142:2164  _bookId < books.length */\n      lt\n        /* \"project-07/contracts/project.sol\":2134:2184  require(_bookId < books.length, \"Invalid book ID\") */\n      tag_63\n      jumpi\n      mload(0x40)\n      0x08c379a000000000000000000000000000000000000000000000000000000000\n      dup2\n      mstore\n      0x04\n      add\n      tag_64\n      swap1\n      tag_65\n      jump\t// in\n    tag_64:\n      mload(0x40)\n      dup1\n      swap2\n      sub\n      swap1\n      revert\n    tag_63:\n        /* \"project-07/contracts/project.sol\":2202:2207  books */\n      0x00\n        /* \"project-07/contracts/project.sol\":2208:2215  _bookId */\n      dup3\n        /* \"project-07/contracts/project.sol\":2202:2216  books[_bookId] */\n      dup2\n      sload\n      dup2\n      lt\n      tag_66\n      jumpi\n      tag_67\n      tag_68\n      jump\t// in\n    tag_67:\n    tag_66:\n      swap1\n      0x00\n      mstore\n      keccak256(0x00, 0x20)\n      swap1\n      0x07\n      mul\n      add\n        /* \"project-07/contracts/project.sol\":2202:2228  books[_bookId].isAvailable */\n      0x03\n      add\n      0x00\n      swap1\n      sload\n      swap1\n      0x0100\n      exp\n      swap1\n      div\n      0xff\n      and\n        /* \"project-07/contracts/project.sol\":2194:2263  require(books[_bookId].isAvailable, \"Book is not available for rent\") */\n      tag_70\n      jumpi\n      mload(0x40)\n      0x08c379a000000000000000000000000000000000000000000000000000000000\n      dup2\n      mstore\n      0x04\n      add\n      tag_71\n      swap1\n      tag_72\n      jump\t// in\n    tag_71:\n      mload(0x40)\n      dup1\n      swap2\n      sub\n      swap1\n      revert\n    tag_70:\n        /* \"project-07/contracts/project.sol\":2331:2348  Book storage book */\n      0x00\n        /* \"project-07/contracts/project.sol\":2351:2356  books */\n      dup1\n        /* \"project-07/contracts/project.sol\":2357:2364  _bookId */\n      dup4\n        /* \"project-07/contracts/project.sol\":2351:2365  books[_bookId] */\n      dup2\n      sload\n      dup2\n      lt\n      tag_73\n      jumpi\n      tag_74\n      tag_68\n      jump\t// in\n    tag_74:\n    tag_73:\n      swap1\n      0x00\n      mstore\n      keccak256(0x00, 0x20)\n      swap1\n      0x07\n      mul\n      add\n        /* \"project-07/contracts/project.sol\":2331:2365  Book storage book = books[_bookId] */\n      swap1\n      pop\n        /* \"project-07/contracts/project.sol\":2375:2398  uint256 totalRentalCost */\n      0x00\n        /* \"project-07/contracts/project.sol\":2420:2431  _rentalDays */\n      dup3\n        /* \"project-07/contracts/project.sol\":2401:2405  book */\n      dup3\n        /* \"project-07/contracts/project.sol\":2401:2417  book.rentalPrice */\n      0x04\n      add\n      sload\n        /* \"project-07/contracts/project.sol\":2401:2431  book.rentalPrice * _rentalDays */\n      tag_76\n      swap2\n      swap1\n      tag_77\n      jump\t// in\n    tag_76:\n        /* \"project-07/contracts/project.sol\":2375:2431  uint256 totalRentalCost = book.rentalPrice * _rentalDays */\n      swap1\n      pop\n        /* \"project-07/contracts/project.sol\":2462:2477  totalRentalCost */\n      dup1\n        /* \"project-07/contracts/project.sol\":2449:2458  msg.value */\n      callvalue\n        /* \"project-07/contracts/project.sol\":2449:2477  msg.value >= totalRentalCost */\n      lt\n      iszero\n        /* \"project-07/contracts/project.sol\":2441:2509  require(msg.value >= totalRentalCost, \"Insufficient rental payment\") */\n      tag_78\n      jumpi\n      mload(0x40)\n      0x08c379a000000000000000000000000000000000000000000000000000000000\n      dup2\n      mstore\n      0x04\n      add\n      tag_79\n      swap1\n      tag_80\n      jump\t// in\n    tag_79:\n      mload(0x40)\n      dup1\n      swap2\n      sub\n      swap1\n      revert\n    tag_78:\n        /* \"project-07/contracts/project.sol\":2569:2574  false */\n      0x00\n        /* \"project-07/contracts/project.sol\":2550:2554  book */\n      dup3\n        /* \"project-07/contracts/project.sol\":2550:2566  book.isAvailable */\n      0x03\n      add\n      0x00\n        /* \"project-07/contracts/project.sol\":2550:2574  book.isAvailable = false */\n      0x0100\n      exp\n      dup2\n      sload\n      dup2\n      0xff\n      mul\n      not\n      and\n      swap1\n      dup4\n      iszero\n      iszero\n      mul\n      or\n      swap1\n      sstore\n      pop\n        /* \"project-07/contracts/project.sol\":2605:2615  msg.sender */\n      caller\n        /* \"project-07/contracts/project.sol\":2584:2588  book */\n      dup3\n        /* \"project-07/contracts/project.sol\":2584:2602  book.currentRenter */\n      0x05\n      add\n      0x00\n        /* \"project-07/contracts/project.sol\":2584:2615  book.currentRenter = msg.sender */\n      0x0100\n      exp\n      dup2\n      sload\n      dup2\n      0xffffffffffffffffffffffffffffffffffffffff\n      mul\n      not\n      and\n      swap1\n      dup4\n      0xffffffffffffffffffffffffffffffffffffffff\n      and\n      mul\n      or\n      swap1\n      sstore\n      pop\n        /* \"project-07/contracts/project.sol\":2677:2683  1 days */\n      0x015180\n        /* \"project-07/contracts/project.sol\":2663:2674  _rentalDays */\n      dup4\n        /* \"project-07/contracts/project.sol\":2663:2683  _rentalDays * 1 days */\n      tag_81\n      swap2\n      swap1\n      tag_77\n      jump\t// in\n    tag_81:\n        /* \"project-07/contracts/project.sol\":2644:2659  block.timestamp */\n      timestamp\n        /* \"project-07/contracts/project.sol\":2644:2684  block.timestamp + (_rentalDays * 1 days) */\n      tag_82\n      swap2\n      swap1\n      tag_83\n      jump\t// in\n    tag_82:\n        /* \"project-07/contracts/project.sol\":2625:2629  book */\n      dup3\n        /* \"project-07/contracts/project.sol\":2625:2641  book.rentedUntil */\n      0x06\n      add\n        /* \"project-07/contracts/project.sol\":2625:2684  book.rentedUntil = block.timestamp + (_rentalDays * 1 days) */\n      dup2\n      swap1\n      sstore\n      pop\n        /* \"project-07/contracts/project.sol\":2748:2752  book */\n      dup2\n        /* \"project-07/contracts/project.sol\":2748:2758  book.owner */\n      0x00\n      add\n      0x00\n      swap1\n      sload\n      swap1\n      0x0100\n      exp\n      swap1\n      div\n      0xffffffffffffffffffffffffffffffffffffffff\n      and\n        /* \"project-07/contracts/project.sol\":2740:2768  payable(book.owner).transfer */\n      0xffffffffffffffffffffffffffffffffffffffff\n      and\n        /* \"project-07/contracts/project.sol\":2740:2785  payable(book.owner).transfer(totalRentalCost) */\n      0x08fc\n        /* \"project-07/contracts/project.sol\":2769:2784  totalRentalCost */\n      dup3\n        /* \"project-07/contracts/project.sol\":2740:2785  payable(book.owner).transfer(totalRentalCost) */\n      swap1\n      dup2\n      iszero\n      mul\n      swap1\n      mload(0x40)\n      0x00\n      mload(0x40)\n      dup1\n      dup4\n      sub\n      dup2\n      dup6\n      dup9\n      dup9\n      call\n      swap4\n      pop\n      pop\n      pop\n      pop\n      iszero\n      dup1\n      iszero\n      tag_85\n      jumpi\n      returndatasize\n      0x00\n      dup1\n      returndatacopy\n      revert(0x00, returndatasize)\n    tag_85:\n      pop\n        /* \"project-07/contracts/project.sol\":2845:2860  totalRentalCost */\n      dup1\n        /* \"project-07/contracts/project.sol\":2833:2842  msg.value */\n      callvalue\n        /* \"project-07/contracts/project.sol\":2833:2860  msg.value > totalRentalCost */\n      gt\n        /* \"project-07/contracts/project.sol\":2829:2944  if (msg.value > totalRentalCost) {... */\n      iszero\n      tag_86\n      jumpi\n        /* \"project-07/contracts/project.sol\":2884:2894  msg.sender */\n      caller\n        /* \"project-07/contracts/project.sol\":2876:2904  payable(msg.sender).transfer */\n      0xffffffffffffffffffffffffffffffffffffffff\n      and\n        /* \"project-07/contracts/project.sol\":2876:2933  payable(msg.sender).transfer(msg.value - totalRentalCost) */\n      0x08fc\n        /* \"project-07/contracts/project.sol\":2917:2932  totalRentalCost */\n      dup3\n        /* \"project-07/contracts/project.sol\":2905:2914  msg.value */\n      callvalue\n        /* \"project-07/contracts/project.sol\":2905:2932  msg.value - totalRentalCost */\n      tag_87\n      swap2\n      swap1\n      tag_88\n      jump\t// in\n    tag_87:\n        /* \"project-07/contracts/project.sol\":2876:2933  payable(msg.sender).transfer(msg.value - totalRentalCost) */\n      swap1\n      dup2\n      iszero\n      mul\n      swap1\n      mload(0x40)\n      0x00\n      mload(0x40)\n      dup1\n      dup4\n      sub\n      dup2\n      dup6\n      dup9\n      dup9\n      call\n      swap4\n      pop\n      pop\n      pop\n      pop\n      iszero\n      dup1\n      iszero\n      tag_90\n      jumpi\n      returndatasize\n      0x00\n      dup1\n      returndatacopy\n      revert(0x00, returndatasize)\n    tag_90:\n      pop\n        /* \"project-07/contracts/project.sol\":2829:2944  if (msg.value > totalRentalCost) {... */\n    tag_86:\n        /* \"project-07/contracts/project.sol\":3017:3027  msg.sender */\n      caller\n        /* \"project-07/contracts/project.sol\":2997:3046  BookRented(_bookId, msg.sender, book.rentedUntil) */\n      0xffffffffffffffffffffffffffffffffffffffff\n      and\n        /* \"project-07/contracts/project.sol\":3008:3015  _bookId */\n      dup5\n        /* \"project-07/contracts/project.sol\":2997:3046  BookRented(_bookId, msg.sender, book.rentedUntil) */\n      0x43be9cce6f4d2c3b94fc5d534505c6370ef4e2b927078ad67bb7f533bad9dfcc\n        /* \"project-07/contracts/project.sol\":3029:3033  book */\n      dup5\n        /* \"project-07/contracts/project.sol\":3029:3045  book.rentedUntil */\n      0x06\n      add\n      sload\n        /* \"project-07/contracts/project.sol\":2997:3046  BookRented(_bookId, msg.sender, book.rentedUntil) */\n      mload(0x40)\n      tag_91\n      swap2\n      swap1\n      tag_12\n      jump\t// in\n    tag_91:\n      mload(0x40)\n      dup1\n      swap2\n      sub\n      swap1\n      log3\n        /* \"project-07/contracts/project.sol\":2075:3053  {... */\n      pop\n      pop\n        /* \"project-07/contracts/project.sol\":2004:3053  function rentBook(uint256 _bookId, uint256 _rentalDays) public payable {... */\n      pop\n      pop\n      jump\t// out\n        /* \"#utility.yul\":7:82   */\n    tag_92:\n        /* \"#utility.yul\":40:46   */\n      0x00\n        /* \"#utility.yul\":73:75   */\n      0x40\n        /* \"#utility.yul\":67:76   */\n      mload\n        /* \"#utility.yul\":57:76   */\n      swap1\n      pop\n        /* \"#utility.yul\":7:82   */\n      swap1\n      jump\t// out\n        /* \"#utility.yul\":88:205   */\n    tag_93:\n        /* \"#utility.yul\":197:198   */\n      0x00\n        /* \"#utility.yul\":194:195   */\n      dup1\n        /* \"#utility.yul\":187:199   */\n      revert\n        /* \"#utility.yul\":211:328   */\n    tag_94:\n        /* \"#utility.yul\":320:321   */\n      0x00\n        /* \"#utility.yul\":317:318   */\n      dup1\n        /* \"#utility.yul\":310:322   */\n      revert\n        /* \"#utility.yul\":334:451   */\n    tag_95:\n        /* \"#utility.yul\":443:444   */\n      0x00\n        /* \"#utility.yul\":440:441   */\n      dup1\n        /* \"#utility.yul\":433:445   */\n      revert\n        /* \"#utility.yul\":457:574   */\n    tag_96:\n        /* \"#utility.yul\":566:567   */\n      0x00\n        /* \"#utility.yul\":563:564   */\n      dup1\n        /* \"#utility.yul\":556:568   */\n      revert\n        /* \"#utility.yul\":580:682   */\n    tag_97:\n        /* \"#utility.yul\":621:627   */\n      0x00\n        /* \"#utility.yul\":672:674   */\n      0x1f\n        /* \"#utility.yul\":668:675   */\n      not\n        /* \"#utility.yul\":663:665   */\n      0x1f\n        /* \"#utility.yul\":656:661   */\n      dup4\n        /* \"#utility.yul\":652:666   */\n      add\n        /* \"#utility.yul\":648:676   */\n      and\n        /* \"#utility.yul\":638:676   */\n      swap1\n      pop\n        /* \"#utility.yul\":580:682   */\n      swap2\n      swap1\n      pop\n      jump\t// out\n        /* \"#utility.yul\":688:868   */\n    tag_98:\n        /* \"#utility.yul\":736:813   */\n      0x4e487b7100000000000000000000000000000000000000000000000000000000\n        /* \"#utility.yul\":733:734   */\n      0x00\n        /* \"#utility.yul\":726:814   */\n      mstore\n        /* \"#utility.yul\":833:837   */\n      0x41\n        /* \"#utility.yul\":830:831   */\n      0x04\n        /* \"#utility.yul\":823:838   */\n      mstore\n        /* \"#utility.yul\":857:861   */\n      0x24\n        /* \"#utility.yul\":854:855   */\n      0x00\n        /* \"#utility.yul\":847:862   */\n      revert\n        /* \"#utility.yul\":874:1155   */\n    tag_99:\n        /* \"#utility.yul\":957:984   */\n      tag_158\n        /* \"#utility.yul\":979:983   */\n      dup3\n        /* \"#utility.yul\":957:984   */\n      tag_97\n      jump\t// in\n    tag_158:\n        /* \"#utility.yul\":949:955   */\n      dup2\n        /* \"#utility.yul\":945:985   */\n      add\n        /* \"#utility.yul\":1087:1093   */\n      dup2\n        /* \"#utility.yul\":1075:1085   */\n      dup2\n        /* \"#utility.yul\":1072:1094   */\n      lt\n        /* \"#utility.yul\":1051:1069   */\n      0xffffffffffffffff\n        /* \"#utility.yul\":1039:1049   */\n      dup3\n        /* \"#utility.yul\":1036:1070   */\n      gt\n        /* \"#utility.yul\":1033:1095   */\n      or\n        /* \"#utility.yul\":1030:1118   */\n      iszero\n      tag_159\n      jumpi\n        /* \"#utility.yul\":1098:1116   */\n      tag_160\n      tag_98\n      jump\t// in\n    tag_160:\n        /* \"#utility.yul\":1030:1118   */\n    tag_159:\n        /* \"#utility.yul\":1138:1148   */\n      dup1\n        /* \"#utility.yul\":1134:1136   */\n      0x40\n        /* \"#utility.yul\":1127:1149   */\n      mstore\n        /* \"#utility.yul\":917:1155   */\n      pop\n        /* \"#utility.yul\":874:1155   */\n      pop\n      pop\n      jump\t// out\n        /* \"#utility.yul\":1161:1290   */\n    tag_100:\n        /* \"#utility.yul\":1195:1201   */\n      0x00\n        /* \"#utility.yul\":1222:1242   */\n      tag_162\n      tag_92\n      jump\t// in\n    tag_162:\n        /* \"#utility.yul\":1212:1242   */\n      swap1\n      pop\n        /* \"#utility.yul\":1251:1284   */\n      tag_163\n        /* \"#utility.yul\":1279:1283   */\n      dup3\n        /* \"#utility.yul\":1271:1277   */\n      dup3\n        /* \"#utility.yul\":1251:1284   */\n      tag_99\n      jump\t// in\n    tag_163:\n        /* \"#utility.yul\":1161:1290   */\n      swap2\n      swap1\n      pop\n      jump\t// out\n        /* \"#utility.yul\":1296:1604   */\n    tag_101:\n        /* \"#utility.yul\":1358:1362   */\n      0x00\n        /* \"#utility.yul\":1448:1466   */\n      0xffffffffffffffff\n        /* \"#utility.yul\":1440:1446   */\n      dup3\n        /* \"#utility.yul\":1437:1467   */\n      gt\n        /* \"#utility.yul\":1434:1490   */\n      iszero\n      tag_165\n      jumpi\n        /* \"#utility.yul\":1470:1488   */\n      tag_166\n      tag_98\n      jump\t// in\n    tag_166:\n        /* \"#utility.yul\":1434:1490   */\n    tag_165:\n        /* \"#utility.yul\":1508:1537   */\n      tag_167\n        /* \"#utility.yul\":1530:1536   */\n      dup3\n        /* \"#utility.yul\":1508:1537   */\n      tag_97\n      jump\t// in\n    tag_167:\n        /* \"#utility.yul\":1500:1537   */\n      swap1\n      pop\n        /* \"#utility.yul\":1592:1596   */\n      0x20\n        /* \"#utility.yul\":1586:1590   */\n      dup2\n        /* \"#utility.yul\":1582:1597   */\n      add\n        /* \"#utility.yul\":1574:1597   */\n      swap1\n      pop\n        /* \"#utility.yul\":1296:1604   */\n      swap2\n      swap1\n      pop\n      jump\t// out\n        /* \"#utility.yul\":1610:1758   */\n    tag_102:\n        /* \"#utility.yul\":1708:1714   */\n      dup3\n        /* \"#utility.yul\":1703:1706   */\n      dup2\n        /* \"#utility.yul\":1698:1701   */\n      dup4\n        /* \"#utility.yul\":1685:1715   */\n      calldatacopy\n        /* \"#utility.yul\":1749:1750   */\n      0x00\n        /* \"#utility.yul\":1740:1746   */\n      dup4\n        /* \"#utility.yul\":1735:1738   */\n      dup4\n        /* \"#utility.yul\":1731:1747   */\n      add\n        /* \"#utility.yul\":1724:1751   */\n      mstore\n        /* \"#utility.yul\":1610:1758   */\n      pop\n      pop\n      pop\n      jump\t// out\n        /* \"#utility.yul\":1764:2189   */\n    tag_103:\n        /* \"#utility.yul\":1842:1847   */\n      0x00\n        /* \"#utility.yul\":1867:1933   */\n      tag_170\n        /* \"#utility.yul\":1883:1932   */\n      tag_171\n        /* \"#utility.yul\":1925:1931   */\n      dup5\n        /* \"#utility.yul\":1883:1932   */\n      tag_101\n      jump\t// in\n    tag_171:\n        /* \"#utility.yul\":1867:1933   */\n      tag_100\n      jump\t// in\n    tag_170:\n        /* \"#utility.yul\":1858:1933   */\n      swap1\n      pop\n        /* \"#utility.yul\":1956:1962   */\n      dup3\n        /* \"#utility.yul\":1949:1954   */\n      dup2\n        /* \"#utility.yul\":1942:1963   */\n      mstore\n        /* \"#utility.yul\":1994:1998   */\n      0x20\n        /* \"#utility.yul\":1987:1992   */\n      dup2\n        /* \"#utility.yul\":1983:1999   */\n      add\n        /* \"#utility.yul\":2032:2035   */\n      dup5\n        /* \"#utility.yul\":2023:2029   */\n      dup5\n        /* \"#utility.yul\":2018:2021   */\n      dup5\n        /* \"#utility.yul\":2014:2030   */\n      add\n        /* \"#utility.yul\":2011:2036   */\n      gt\n        /* \"#utility.yul\":2008:2120   */\n      iszero\n      tag_172\n      jumpi\n        /* \"#utility.yul\":2039:2118   */\n      tag_173\n      tag_96\n      jump\t// in\n    tag_173:\n        /* \"#utility.yul\":2008:2120   */\n    tag_172:\n        /* \"#utility.yul\":2129:2183   */\n      tag_174\n        /* \"#utility.yul\":2176:2182   */\n      dup5\n        /* \"#utility.yul\":2171:2174   */\n      dup3\n        /* \"#utility.yul\":2166:2169   */\n      dup6\n        /* \"#utility.yul\":2129:2183   */\n      tag_102\n      jump\t// in\n    tag_174:\n        /* \"#utility.yul\":1848:2189   */\n      pop\n        /* \"#utility.yul\":1764:2189   */\n      swap4\n      swap3\n      pop\n      pop\n      pop\n      jump\t// out\n        /* \"#utility.yul\":2209:2549   */\n    tag_104:\n        /* \"#utility.yul\":2265:2270   */\n      0x00\n        /* \"#utility.yul\":2314:2317   */\n      dup3\n        /* \"#utility.yul\":2307:2311   */\n      0x1f\n        /* \"#utility.yul\":2299:2305   */\n      dup4\n        /* \"#utility.yul\":2295:2312   */\n      add\n        /* \"#utility.yul\":2291:2318   */\n      slt\n        /* \"#utility.yul\":2281:2403   */\n      tag_176\n      jumpi\n        /* \"#utility.yul\":2322:2401   */\n      tag_177\n      tag_95\n      jump\t// in\n    tag_177:\n        /* \"#utility.yul\":2281:2403   */\n    tag_176:\n        /* \"#utility.yul\":2439:2445   */\n      dup2\n        /* \"#utility.yul\":2426:2446   */\n      calldataload\n        /* \"#utility.yul\":2464:2543   */\n      tag_178\n        /* \"#utility.yul\":2539:2542   */\n      dup5\n        /* \"#utility.yul\":2531:2537   */\n      dup3\n        /* \"#utility.yul\":2524:2528   */\n      0x20\n        /* \"#utility.yul\":2516:2522   */\n      dup7\n        /* \"#utility.yul\":2512:2529   */\n      add\n        /* \"#utility.yul\":2464:2543   */\n      tag_103\n      jump\t// in\n    tag_178:\n        /* \"#utility.yul\":2455:2543   */\n      swap2\n      pop\n        /* \"#utility.yul\":2271:2549   */\n      pop\n        /* \"#utility.yul\":2209:2549   */\n      swap3\n      swap2\n      pop\n      pop\n      jump\t// out\n        /* \"#utility.yul\":2555:2632   */\n    tag_105:\n        /* \"#utility.yul\":2592:2599   */\n      0x00\n        /* \"#utility.yul\":2621:2626   */\n      dup2\n        /* \"#utility.yul\":2610:2626   */\n      swap1\n      pop\n        /* \"#utility.yul\":2555:2632   */\n      swap2\n      swap1\n      pop\n      jump\t// out\n        /* \"#utility.yul\":2638:2760   */\n    tag_106:\n        /* \"#utility.yul\":2711:2735   */\n      tag_181\n        /* \"#utility.yul\":2729:2734   */\n      dup2\n        /* \"#utility.yul\":2711:2735   */\n      tag_105\n      jump\t// in\n    tag_181:\n        /* \"#utility.yul\":2704:2709   */\n      dup2\n        /* \"#utility.yul\":2701:2736   */\n      eq\n        /* \"#utility.yul\":2691:2754   */\n      tag_182\n      jumpi\n        /* \"#utility.yul\":2750:2751   */\n      0x00\n        /* \"#utility.yul\":2747:2748   */\n      dup1\n        /* \"#utility.yul\":2740:2752   */\n      revert\n        /* \"#utility.yul\":2691:2754   */\n    tag_182:\n        /* \"#utility.yul\":2638:2760   */\n      pop\n      jump\t// out\n        /* \"#utility.yul\":2766:2905   */\n    tag_107:\n        /* \"#utility.yul\":2812:2817   */\n      0x00\n        /* \"#utility.yul\":2850:2856   */\n      dup2\n        /* \"#utility.yul\":2837:2857   */\n      calldataload\n        /* \"#utility.yul\":2828:2857   */\n      swap1\n      pop\n        /* \"#utility.yul\":2866:2899   */\n      tag_184\n        /* \"#utility.yul\":2893:2898   */\n      dup2\n        /* \"#utility.yul\":2866:2899   */\n      tag_106\n      jump\t// in\n    tag_184:\n        /* \"#utility.yul\":2766:2905   */\n      swap3\n      swap2\n      pop\n      pop\n      jump\t// out\n        /* \"#utility.yul\":2911:3890   */\n    tag_9:\n        /* \"#utility.yul\":3008:3014   */\n      0x00\n        /* \"#utility.yul\":3016:3022   */\n      dup1\n        /* \"#utility.yul\":3024:3030   */\n      0x00\n        /* \"#utility.yul\":3073:3075   */\n      0x60\n        /* \"#utility.yul\":3061:3070   */\n      dup5\n        /* \"#utility.yul\":3052:3059   */\n      dup7\n        /* \"#utility.yul\":3048:3071   */\n      sub\n        /* \"#utility.yul\":3044:3076   */\n      slt\n        /* \"#utility.yul\":3041:3160   */\n      iszero\n      tag_186\n      jumpi\n        /* \"#utility.yul\":3079:3158   */\n      tag_187\n      tag_93\n      jump\t// in\n    tag_187:\n        /* \"#utility.yul\":3041:3160   */\n    tag_186:\n        /* \"#utility.yul\":3227:3228   */\n      0x00\n        /* \"#utility.yul\":3216:3225   */\n      dup5\n        /* \"#utility.yul\":3212:3229   */\n      add\n        /* \"#utility.yul\":3199:3230   */\n      calldataload\n        /* \"#utility.yul\":3257:3275   */\n      0xffffffffffffffff\n        /* \"#utility.yul\":3249:3255   */\n      dup2\n        /* \"#utility.yul\":3246:3276   */\n      gt\n        /* \"#utility.yul\":3243:3360   */\n      iszero\n      tag_188\n      jumpi\n        /* \"#utility.yul\":3279:3358   */\n      tag_189\n      tag_94\n      jump\t// in\n    tag_189:\n        /* \"#utility.yul\":3243:3360   */\n    tag_188:\n        /* \"#utility.yul\":3384:3447   */\n      tag_190\n        /* \"#utility.yul\":3439:3446   */\n      dup7\n        /* \"#utility.yul\":3430:3436   */\n      dup3\n        /* \"#utility.yul\":3419:3428   */\n      dup8\n        /* \"#utility.yul\":3415:3437   */\n      add\n        /* \"#utility.yul\":3384:3447   */\n      tag_104\n      jump\t// in\n    tag_190:\n        /* \"#utility.yul\":3374:3447   */\n      swap4\n      pop\n        /* \"#utility.yul\":3170:3457   */\n      pop\n        /* \"#utility.yul\":3524:3526   */\n      0x20\n        /* \"#utility.yul\":3513:3522   */\n      dup5\n        /* \"#utility.yul\":3509:3527   */\n      add\n        /* \"#utility.yul\":3496:3528   */\n      calldataload\n        /* \"#utility.yul\":3555:3573   */\n      0xffffffffffffffff\n        /* \"#utility.yul\":3547:3553   */\n      dup2\n        /* \"#utility.yul\":3544:3574   */\n      gt\n        /* \"#utility.yul\":3541:3658   */\n      iszero\n      tag_191\n      jumpi\n        /* \"#utility.yul\":3577:3656   */\n      tag_192\n      tag_94\n      jump\t// in\n    tag_192:\n        /* \"#utility.yul\":3541:3658   */\n    tag_191:\n        /* \"#utility.yul\":3682:3745   */\n      tag_193\n        /* \"#utility.yul\":3737:3744   */\n      dup7\n        /* \"#utility.yul\":3728:3734   */\n      dup3\n        /* \"#utility.yul\":3717:3726   */\n      dup8\n        /* \"#utility.yul\":3713:3735   */\n      add\n        /* \"#utility.yul\":3682:3745   */\n      tag_104\n      jump\t// in\n    tag_193:\n        /* \"#utility.yul\":3672:3745   */\n      swap3\n      pop\n        /* \"#utility.yul\":3467:3755   */\n      pop\n        /* \"#utility.yul\":3794:3796   */\n      0x40\n        /* \"#utility.yul\":3820:3873   */\n      tag_194\n        /* \"#utility.yul\":3865:3872   */\n      dup7\n        /* \"#utility.yul\":3856:3862   */\n      dup3\n        /* \"#utility.yul\":3845:3854   */\n      dup8\n        /* \"#utility.yul\":3841:3863   */\n      add\n        /* \"#utility.yul\":3820:3873   */\n      tag_107\n      jump\t// in\n    tag_194:\n        /* \"#utility.yul\":3810:3873   */\n      swap2\n      pop\n        /* \"#utility.yul\":3765:3883   */\n      pop\n        /* \"#utility.yul\":2911:3890   */\n      swap3\n      pop\n      swap3\n      pop\n      swap3\n      jump\t// out\n        /* \"#utility.yul\":3896:4014   */\n    tag_108:\n        /* \"#utility.yul\":3983:4007   */\n      tag_196\n        /* \"#utility.yul\":4001:4006   */\n      dup2\n        /* \"#utility.yul\":3983:4007   */\n      tag_105\n      jump\t// in\n    tag_196:\n        /* \"#utility.yul\":3978:3981   */\n      dup3\n        /* \"#utility.yul\":3971:4008   */\n      mstore\n        /* \"#utility.yul\":3896:4014   */\n      pop\n      pop\n      jump\t// out\n        /* \"#utility.yul\":4020:4242   */\n    tag_12:\n        /* \"#utility.yul\":4113:4117   */\n      0x00\n        /* \"#utility.yul\":4151:4153   */\n      0x20\n        /* \"#utility.yul\":4140:4149   */\n      dup3\n        /* \"#utility.yul\":4136:4154   */\n      add\n        /* \"#utility.yul\":4128:4154   */\n      swap1\n      pop\n        /* \"#utility.yul\":4164:4235   */\n      tag_198\n        /* \"#utility.yul\":4232:4233   */\n      0x00\n        /* \"#utility.yul\":4221:4230   */\n      dup4\n        /* \"#utility.yul\":4217:4234   */\n      add\n        /* \"#utility.yul\":4208:4214   */\n      dup5\n        /* \"#utility.yul\":4164:4235   */\n      tag_108\n      jump\t// in\n    tag_198:\n        /* \"#utility.yul\":4020:4242   */\n      swap3\n      swap2\n      pop\n      pop\n      jump\t// out\n        /* \"#utility.yul\":4248:4374   */\n    tag_109:\n        /* \"#utility.yul\":4285:4292   */\n      0x00\n        /* \"#utility.yul\":4325:4367   */\n      0xffffffffffffffffffffffffffffffffffffffff\n        /* \"#utility.yul\":4318:4323   */\n      dup3\n        /* \"#utility.yul\":4314:4368   */\n      and\n        /* \"#utility.yul\":4303:4368   */\n      swap1\n      pop\n        /* \"#utility.yul\":4248:4374   */\n      swap2\n      swap1\n      pop\n      jump\t// out\n        /* \"#utility.yul\":4380:4476   */\n    tag_110:\n        /* \"#utility.yul\":4417:4424   */\n      0x00\n        /* \"#utility.yul\":4446:4470   */\n      tag_201\n        /* \"#utility.yul\":4464:4469   */\n      dup3\n        /* \"#utility.yul\":4446:4470   */\n      tag_109\n      jump\t// in\n    tag_201:\n        /* \"#utility.yul\":4435:4470   */\n      swap1\n      pop\n        /* \"#utility.yul\":4380:4476   */\n      swap2\n      swap1\n      pop\n      jump\t// out\n        /* \"#utility.yul\":4482:4604   */\n    tag_111:\n        /* \"#utility.yul\":4555:4579   */\n      tag_203\n        /* \"#utility.yul\":4573:4578   */\n      dup2\n        /* \"#utility.yul\":4555:4579   */\n      tag_110\n      jump\t// in\n    tag_203:\n        /* \"#utility.yul\":4548:4553   */\n      dup2\n        /* \"#utility.yul\":4545:4580   */\n      eq\n        /* \"#utility.yul\":4535:4598   */\n      tag_204\n      jumpi\n        /* \"#utility.yul\":4594:4595   */\n      0x00\n        /* \"#utility.yul\":4591:4592   */\n      dup1\n        /* \"#utility.yul\":4584:4596   */\n      revert\n        /* \"#utility.yul\":4535:4598   */\n    tag_204:\n        /* \"#utility.yul\":4482:4604   */\n      pop\n      jump\t// out\n        /* \"#utility.yul\":4610:4749   */\n    tag_112:\n        /* \"#utility.yul\":4656:4661   */\n      0x00\n        /* \"#utility.yul\":4694:4700   */\n      dup2\n        /* \"#utility.yul\":4681:4701   */\n      calldataload\n        /* \"#utility.yul\":4672:4701   */\n      swap1\n      pop\n        /* \"#utility.yul\":4710:4743   */\n      tag_206\n        /* \"#utility.yul\":4737:4742   */\n      dup2\n        /* \"#utility.yul\":4710:4743   */\n      tag_111\n      jump\t// in\n    tag_206:\n        /* \"#utility.yul\":4610:4749   */\n      swap3\n      swap2\n      pop\n      pop\n      jump\t// out\n        /* \"#utility.yul\":4755:5229   */\n    tag_16:\n        /* \"#utility.yul\":4823:4829   */\n      0x00\n        /* \"#utility.yul\":4831:4837   */\n      dup1\n        /* \"#utility.yul\":4880:4882   */\n      0x40\n        /* \"#utility.yul\":4868:4877   */\n      dup4\n        /* \"#utility.yul\":4859:4866   */\n      dup6\n        /* \"#utility.yul\":4855:4878   */\n      sub\n        /* \"#utility.yul\":4851:4883   */\n      slt\n        /* \"#utility.yul\":4848:4967   */\n      iszero\n      tag_208\n      jumpi\n        /* \"#utility.yul\":4886:4965   */\n      tag_209\n      tag_93\n      jump\t// in\n    tag_209:\n        /* \"#utility.yul\":4848:4967   */\n    tag_208:\n        /* \"#utility.yul\":5006:5007   */\n      0x00\n        /* \"#utility.yul\":5031:5084   */\n      tag_210\n        /* \"#utility.yul\":5076:5083   */\n      dup6\n        /* \"#utility.yul\":5067:5073   */\n      dup3\n        /* \"#utility.yul\":5056:5065   */\n      dup7\n        /* \"#utility.yul\":5052:5074   */\n      add\n        /* \"#utility.yul\":5031:5084   */\n      tag_112\n      jump\t// in\n    tag_210:\n        /* \"#utility.yul\":5021:5084   */\n      swap3\n      pop\n        /* \"#utility.yul\":4977:5094   */\n      pop\n        /* \"#utility.yul\":5133:5135   */\n      0x20\n        /* \"#utility.yul\":5159:5212   */\n      tag_211\n        /* \"#utility.yul\":5204:5211   */\n      dup6\n        /* \"#utility.yul\":5195:5201   */\n      dup3\n        /* \"#utility.yul\":5184:5193   */\n      dup7\n        /* \"#utility.yul\":5180:5202   */\n      add\n        /* \"#utility.yul\":5159:5212   */\n      tag_107\n      jump\t// in\n    tag_211:\n        /* \"#utility.yul\":5149:5212   */\n      swap2\n      pop\n        /* \"#utility.yul\":5104:5222   */\n      pop\n        /* \"#utility.yul\":4755:5229   */\n      swap3\n      pop\n      swap3\n      swap1\n      pop\n      jump\t// out\n        /* \"#utility.yul\":5235:5564   */\n    tag_22:\n        /* \"#utility.yul\":5294:5300   */\n      0x00\n        /* \"#utility.yul\":5343:5345   */\n      0x20\n        /* \"#utility.yul\":5331:5340   */\n      dup3\n        /* \"#utility.yul\":5322:5329   */\n      dup5\n        /* \"#utility.yul\":5318:5341   */\n      sub\n        /* \"#utility.yul\":5314:5346   */\n      slt\n        /* \"#utility.yul\":5311:5430   */\n      iszero\n      tag_213\n      jumpi\n        /* \"#utility.yul\":5349:5428   */\n      tag_214\n      tag_93\n      jump\t// in\n    tag_214:\n        /* \"#utility.yul\":5311:5430   */\n    tag_213:\n        /* \"#utility.yul\":5469:5470   */\n      0x00\n        /* \"#utility.yul\":5494:5547   */\n      tag_215\n        /* \"#utility.yul\":5539:5546   */\n      dup5\n        /* \"#utility.yul\":5530:5536   */\n      dup3\n        /* \"#utility.yul\":5519:5528   */\n      dup6\n        /* \"#utility.yul\":5515:5537   */\n      add\n        /* \"#utility.yul\":5494:5547   */\n      tag_107\n      jump\t// in\n    tag_215:\n        /* \"#utility.yul\":5484:5547   */\n      swap2\n      pop\n        /* \"#utility.yul\":5440:5557   */\n      pop\n        /* \"#utility.yul\":5235:5564   */\n      swap3\n      swap2\n      pop\n      pop\n      jump\t// out\n        /* \"#utility.yul\":5570:5688   */\n    tag_113:\n        /* \"#utility.yul\":5657:5681   */\n      tag_217\n        /* \"#utility.yul\":5675:5680   */\n      dup2\n        /* \"#utility.yul\":5657:5681   */\n      tag_110\n      jump\t// in\n    tag_217:\n        /* \"#utility.yul\":5652:5655   */\n      dup3\n        /* \"#utility.yul\":5645:5682   */\n      mstore\n        /* \"#utility.yul\":5570:5688   */\n      pop\n      pop\n      jump\t// out\n        /* \"#utility.yul\":5694:5793   */\n    tag_114:\n        /* \"#utility.yul\":5746:5752   */\n      0x00\n        /* \"#utility.yul\":5780:5785   */\n      dup2\n        /* \"#utility.yul\":5774:5786   */\n      mload\n        /* \"#utility.yul\":5764:5786   */\n      swap1\n      pop\n        /* \"#utility.yul\":5694:5793   */\n      swap2\n      swap1\n      pop\n      jump\t// out\n        /* \"#utility.yul\":5799:5968   */\n    tag_115:\n        /* \"#utility.yul\":5883:5894   */\n      0x00\n        /* \"#utility.yul\":5917:5923   */\n      dup3\n        /* \"#utility.yul\":5912:5915   */\n      dup3\n        /* \"#utility.yul\":5905:5924   */\n      mstore\n        /* \"#utility.yul\":5957:5961   */\n      0x20\n        /* \"#utility.yul\":5952:5955   */\n      dup3\n        /* \"#utility.yul\":5948:5962   */\n      add\n        /* \"#utility.yul\":5933:5962   */\n      swap1\n      pop\n        /* \"#utility.yul\":5799:5968   */\n      swap3\n      swap2\n      pop\n      pop\n      jump\t// out\n        /* \"#utility.yul\":5974:6113   */\n    tag_116:\n        /* \"#utility.yul\":6063:6069   */\n      dup3\n        /* \"#utility.yul\":6058:6061   */\n      dup2\n        /* \"#utility.yul\":6053:6056   */\n      dup4\n        /* \"#utility.yul\":6047:6070   */\n      mcopy\n        /* \"#utility.yul\":6104:6105   */\n      0x00\n        /* \"#utility.yul\":6095:6101   */\n      dup4\n        /* \"#utility.yul\":6090:6093   */\n      dup4\n        /* \"#utility.yul\":6086:6102   */\n      add\n        /* \"#utility.yul\":6079:6106   */\n      mstore\n        /* \"#utility.yul\":5974:6113   */\n      pop\n      pop\n      pop\n      jump\t// out\n        /* \"#utility.yul\":6119:6496   */\n    tag_117:\n        /* \"#utility.yul\":6207:6210   */\n      0x00\n        /* \"#utility.yul\":6235:6274   */\n      tag_222\n        /* \"#utility.yul\":6268:6273   */\n      dup3\n        /* \"#utility.yul\":6235:6274   */\n      tag_114\n      jump\t// in\n    tag_222:\n        /* \"#utility.yul\":6290:6361   */\n      tag_223\n        /* \"#utility.yul\":6354:6360   */\n      dup2\n        /* \"#utility.yul\":6349:6352   */\n      dup6\n        /* \"#utility.yul\":6290:6361   */\n      tag_115\n      jump\t// in\n    tag_223:\n        /* \"#utility.yul\":6283:6361   */\n      swap4\n      pop\n        /* \"#utility.yul\":6370:6435   */\n      tag_224\n        /* \"#utility.yul\":6428:6434   */\n      dup2\n        /* \"#utility.yul\":6423:6426   */\n      dup6\n        /* \"#utility.yul\":6416:6420   */\n      0x20\n        /* \"#utility.yul\":6409:6414   */\n      dup7\n        /* \"#utility.yul\":6405:6421   */\n      add\n        /* \"#utility.yul\":6370:6435   */\n      tag_116\n      jump\t// in\n    tag_224:\n        /* \"#utility.yul\":6460:6489   */\n      tag_225\n        /* \"#utility.yul\":6482:6488   */\n      dup2\n        /* \"#utility.yul\":6460:6489   */\n      tag_97\n      jump\t// in\n    tag_225:\n        /* \"#utility.yul\":6455:6458   */\n      dup5\n        /* \"#utility.yul\":6451:6490   */\n      add\n        /* \"#utility.yul\":6444:6490   */\n      swap2\n      pop\n        /* \"#utility.yul\":6211:6496   */\n      pop\n        /* \"#utility.yul\":6119:6496   */\n      swap3\n      swap2\n      pop\n      pop\n      jump\t// out\n        /* \"#utility.yul\":6502:6592   */\n    tag_118:\n        /* \"#utility.yul\":6536:6543   */\n      0x00\n        /* \"#utility.yul\":6579:6584   */\n      dup2\n        /* \"#utility.yul\":6572:6585   */\n      iszero\n        /* \"#utility.yul\":6565:6586   */\n      iszero\n        /* \"#utility.yul\":6554:6586   */\n      swap1\n      pop\n        /* \"#utility.yul\":6502:6592   */\n      swap2\n      swap1\n      pop\n      jump\t// out\n        /* \"#utility.yul\":6598:6707   */\n    tag_119:\n        /* \"#utility.yul\":6679:6700   */\n      tag_228\n        /* \"#utility.yul\":6694:6699   */\n      dup2\n        /* \"#utility.yul\":6679:6700   */\n      tag_118\n      jump\t// in\n    tag_228:\n        /* \"#utility.yul\":6674:6677   */\n      dup3\n        /* \"#utility.yul\":6667:6701   */\n      mstore\n        /* \"#utility.yul\":6598:6707   */\n      pop\n      pop\n      jump\t// out\n        /* \"#utility.yul\":6713:7769   */\n    tag_25:\n        /* \"#utility.yul\":7008:7012   */\n      0x00\n        /* \"#utility.yul\":7046:7049   */\n      0xe0\n        /* \"#utility.yul\":7035:7044   */\n      dup3\n        /* \"#utility.yul\":7031:7050   */\n      add\n        /* \"#utility.yul\":7023:7050   */\n      swap1\n      pop\n        /* \"#utility.yul\":7060:7131   */\n      tag_230\n        /* \"#utility.yul\":7128:7129   */\n      0x00\n        /* \"#utility.yul\":7117:7126   */\n      dup4\n        /* \"#utility.yul\":7113:7130   */\n      add\n        /* \"#utility.yul\":7104:7110   */\n      dup11\n        /* \"#utility.yul\":7060:7131   */\n      tag_113\n      jump\t// in\n    tag_230:\n        /* \"#utility.yul\":7178:7187   */\n      dup2\n        /* \"#utility.yul\":7172:7176   */\n      dup2\n        /* \"#utility.yul\":7168:7188   */\n      sub\n        /* \"#utility.yul\":7163:7165   */\n      0x20\n        /* \"#utility.yul\":7152:7161   */\n      dup4\n        /* \"#utility.yul\":7148:7166   */\n      add\n        /* \"#utility.yul\":7141:7189   */\n      mstore\n        /* \"#utility.yul\":7206:7284   */\n      tag_231\n        /* \"#utility.yul\":7279:7283   */\n      dup2\n        /* \"#utility.yul\":7270:7276   */\n      dup10\n        /* \"#utility.yul\":7206:7284   */\n      tag_117\n      jump\t// in\n    tag_231:\n        /* \"#utility.yul\":7198:7284   */\n      swap1\n      pop\n        /* \"#utility.yul\":7331:7340   */\n      dup2\n        /* \"#utility.yul\":7325:7329   */\n      dup2\n        /* \"#utility.yul\":7321:7341   */\n      sub\n        /* \"#utility.yul\":7316:7318   */\n      0x40\n        /* \"#utility.yul\":7305:7314   */\n      dup4\n        /* \"#utility.yul\":7301:7319   */\n      add\n        /* \"#utility.yul\":7294:7342   */\n      mstore\n        /* \"#utility.yul\":7359:7437   */\n      tag_232\n        /* \"#utility.yul\":7432:7436   */\n      dup2\n        /* \"#utility.yul\":7423:7429   */\n      dup9\n        /* \"#utility.yul\":7359:7437   */\n      tag_117\n      jump\t// in\n    tag_232:\n        /* \"#utility.yul\":7351:7437   */\n      swap1\n      pop\n        /* \"#utility.yul\":7447:7513   */\n      tag_233\n        /* \"#utility.yul\":7509:7511   */\n      0x60\n        /* \"#utility.yul\":7498:7507   */\n      dup4\n        /* \"#utility.yul\":7494:7512   */\n      add\n        /* \"#utility.yul\":7485:7491   */\n      dup8\n        /* \"#utility.yul\":7447:7513   */\n      tag_119\n      jump\t// in\n    tag_233:\n        /* \"#utility.yul\":7523:7596   */\n      tag_234\n        /* \"#utility.yul\":7591:7594   */\n      0x80\n        /* \"#utility.yul\":7580:7589   */\n      dup4\n        /* \"#utility.yul\":7576:7595   */\n      add\n        /* \"#utility.yul\":7567:7573   */\n      dup7\n        /* \"#utility.yul\":7523:7596   */\n      tag_108\n      jump\t// in\n    tag_234:\n        /* \"#utility.yul\":7606:7679   */\n      tag_235\n        /* \"#utility.yul\":7674:7677   */\n      0xa0\n        /* \"#utility.yul\":7663:7672   */\n      dup4\n        /* \"#utility.yul\":7659:7678   */\n      add\n        /* \"#utility.yul\":7650:7656   */\n      dup6\n        /* \"#utility.yul\":7606:7679   */\n      tag_113\n      jump\t// in\n    tag_235:\n        /* \"#utility.yul\":7689:7762   */\n      tag_236\n        /* \"#utility.yul\":7757:7760   */\n      0xc0\n        /* \"#utility.yul\":7746:7755   */\n      dup4\n        /* \"#utility.yul\":7742:7761   */\n      add\n        /* \"#utility.yul\":7733:7739   */\n      dup5\n        /* \"#utility.yul\":7689:7762   */\n      tag_108\n      jump\t// in\n    tag_236:\n        /* \"#utility.yul\":6713:7769   */\n      swap9\n      swap8\n      pop\n      pop\n      pop\n      pop\n      pop\n      pop\n      pop\n      pop\n      jump\t// out\n        /* \"#utility.yul\":7775:8249   */\n    tag_28:\n        /* \"#utility.yul\":7843:7849   */\n      0x00\n        /* \"#utility.yul\":7851:7857   */\n      dup1\n        /* \"#utility.yul\":7900:7902   */\n      0x40\n        /* \"#utility.yul\":7888:7897   */\n      dup4\n        /* \"#utility.yul\":7879:7886   */\n      dup6\n        /* \"#utility.yul\":7875:7898   */\n      sub\n        /* \"#utility.yul\":7871:7903   */\n      slt\n        /* \"#utility.yul\":7868:7987   */\n      iszero\n      tag_238\n      jumpi\n        /* \"#utility.yul\":7906:7985   */\n      tag_239\n      tag_93\n      jump\t// in\n    tag_239:\n        /* \"#utility.yul\":7868:7987   */\n    tag_238:\n        /* \"#utility.yul\":8026:8027   */\n      0x00\n        /* \"#utility.yul\":8051:8104   */\n      tag_240\n        /* \"#utility.yul\":8096:8103   */\n      dup6\n        /* \"#utility.yul\":8087:8093   */\n      dup3\n        /* \"#utility.yul\":8076:8085   */\n      dup7\n        /* \"#utility.yul\":8072:8094   */\n      add\n        /* \"#utility.yul\":8051:8104   */\n      tag_107\n      jump\t// in\n    tag_240:\n        /* \"#utility.yul\":8041:8104   */\n      swap3\n      pop\n        /* \"#utility.yul\":7997:8114   */\n      pop\n        /* \"#utility.yul\":8153:8155   */\n      0x20\n        /* \"#utility.yul\":8179:8232   */\n      tag_241\n        /* \"#utility.yul\":8224:8231   */\n      dup6\n        /* \"#utility.yul\":8215:8221   */\n      dup3\n        /* \"#utility.yul\":8204:8213   */\n      dup7\n        /* \"#utility.yul\":8200:8222   */\n      add\n        /* \"#utility.yul\":8179:8232   */\n      tag_107\n      jump\t// in\n    tag_241:\n        /* \"#utility.yul\":8169:8232   */\n      swap2\n      pop\n        /* \"#utility.yul\":8124:8242   */\n      pop\n        /* \"#utility.yul\":7775:8249   */\n      swap3\n      pop\n      swap3\n      swap1\n      pop\n      jump\t// out\n        /* \"#utility.yul\":8255:8426   */\n    tag_120:\n        /* \"#utility.yul\":8395:8418   */\n      0x5469746c652063616e6e6f7420626520656d7074790000000000000000000000\n        /* \"#utility.yul\":8391:8392   */\n      0x00\n        /* \"#utility.yul\":8383:8389   */\n      dup3\n        /* \"#utility.yul\":8379:8393   */\n      add\n        /* \"#utility.yul\":8372:8419   */\n      mstore\n        /* \"#utility.yul\":8255:8426   */\n      pop\n      jump\t// out\n        /* \"#utility.yul\":8432:8798   */\n    tag_121:\n        /* \"#utility.yul\":8574:8577   */\n      0x00\n        /* \"#utility.yul\":8595:8662   */\n      tag_244\n        /* \"#utility.yul\":8659:8661   */\n      0x15\n        /* \"#utility.yul\":8654:8657   */\n      dup4\n        /* \"#utility.yul\":8595:8662   */\n      tag_115\n      jump\t// in\n    tag_244:\n        /* \"#utility.yul\":8588:8662   */\n      swap2\n      pop\n        /* \"#utility.yul\":8671:8764   */\n      tag_245\n        /* \"#utility.yul\":8760:8763   */\n      dup3\n        /* \"#utility.yul\":8671:8764   */\n      tag_120\n      jump\t// in\n    tag_245:\n        /* \"#utility.yul\":8789:8791   */\n      0x20\n        /* \"#utility.yul\":8784:8787   */\n      dup3\n        /* \"#utility.yul\":8780:8792   */\n      add\n        /* \"#utility.yul\":8773:8792   */\n      swap1\n      pop\n        /* \"#utility.yul\":8432:8798   */\n      swap2\n      swap1\n      pop\n      jump\t// out\n        /* \"#utility.yul\":8804:9223   */\n    tag_33:\n        /* \"#utility.yul\":8970:8974   */\n      0x00\n        /* \"#utility.yul\":9008:9010   */\n      0x20\n        /* \"#utility.yul\":8997:9006   */\n      dup3\n        /* \"#utility.yul\":8993:9011   */\n      add\n        /* \"#utility.yul\":8985:9011   */\n      swap1\n      pop\n        /* \"#utility.yul\":9057:9066   */\n      dup2\n        /* \"#utility.yul\":9051:9055   */\n      dup2\n        /* \"#utility.yul\":9047:9067   */\n      sub\n        /* \"#utility.yul\":9043:9044   */\n      0x00\n        /* \"#utility.yul\":9032:9041   */\n      dup4\n        /* \"#utility.yul\":9028:9045   */\n      add\n        /* \"#utility.yul\":9021:9068   */\n      mstore\n        /* \"#utility.yul\":9085:9216   */\n      tag_247\n        /* \"#utility.yul\":9211:9215   */\n      dup2\n        /* \"#utility.yul\":9085:9216   */\n      tag_121\n      jump\t// in\n    tag_247:\n        /* \"#utility.yul\":9077:9216   */\n      swap1\n      pop\n        /* \"#utility.yul\":8804:9223   */\n      swap2\n      swap1\n      pop\n      jump\t// out\n        /* \"#utility.yul\":9229:9401   */\n    tag_122:\n        /* \"#utility.yul\":9369:9393   */\n      0x417574686f722063616e6e6f7420626520656d70747900000000000000000000\n        /* \"#utility.yul\":9365:9366   */\n      0x00\n        /* \"#utility.yul\":9357:9363   */\n      dup3\n        /* \"#utility.yul\":9353:9367   */\n      add\n        /* \"#utility.yul\":9346:9394   */\n      mstore\n        /* \"#utility.yul\":9229:9401   */\n      pop\n      jump\t// out\n        /* \"#utility.yul\":9407:9773   */\n    tag_123:\n        /* \"#utility.yul\":9549:9552   */\n      0x00\n        /* \"#utility.yul\":9570:9637   */\n      tag_250\n        /* \"#utility.yul\":9634:9636   */\n      0x16\n        /* \"#utility.yul\":9629:9632   */\n      dup4\n        /* \"#utility.yul\":9570:9637   */\n      tag_115\n      jump\t// in\n    tag_250:\n        /* \"#utility.yul\":9563:9637   */\n      swap2\n      pop\n        /* \"#utility.yul\":9646:9739   */\n      tag_251\n        /* \"#utility.yul\":9735:9738   */\n      dup3\n        /* \"#utility.yul\":9646:9739   */\n      tag_122\n      jump\t// in\n    tag_251:\n        /* \"#utility.yul\":9764:9766   */\n      0x20\n        /* \"#utility.yul\":9759:9762   */\n      dup3\n        /* \"#utility.yul\":9755:9767   */\n      add\n        /* \"#utility.yul\":9748:9767   */\n      swap1\n      pop\n        /* \"#utility.yul\":9407:9773   */\n      swap2\n      swap1\n      pop\n      jump\t// out\n        /* \"#utility.yul\":9779:10198   */\n    tag_36:\n        /* \"#utility.yul\":9945:9949   */\n      0x00\n        /* \"#utility.yul\":9983:9985   */\n      0x20\n        /* \"#utility.yul\":9972:9981   */\n      dup3\n        /* \"#utility.yul\":9968:9986   */\n      add\n        /* \"#utility.yul\":9960:9986   */\n      swap1\n      pop\n        /* \"#utility.yul\":10032:10041   */\n      dup2\n        /* \"#utility.yul\":10026:10030   */\n      dup2\n        /* \"#utility.yul\":10022:10042   */\n      sub\n        /* \"#utility.yul\":10018:10019   */\n      0x00\n        /* \"#utility.yul\":10007:10016   */\n      dup4\n        /* \"#utility.yul\":10003:10020   */\n      add\n        /* \"#utility.yul\":9996:10043   */\n      mstore\n        /* \"#utility.yul\":10060:10191   */\n      tag_253\n        /* \"#utility.yul\":10186:10190   */\n      dup2\n        /* \"#utility.yul\":10060:10191   */\n      tag_123\n      jump\t// in\n    tag_253:\n        /* \"#utility.yul\":10052:10191   */\n      swap1\n      pop\n        /* \"#utility.yul\":9779:10198   */\n      swap2\n      swap1\n      pop\n      jump\t// out\n        /* \"#utility.yul\":10204:10429   */\n    tag_124:\n        /* \"#utility.yul\":10344:10378   */\n      0x52656e74616c207072696365206d757374206265206772656174657220746861\n        /* \"#utility.yul\":10340:10341   */\n      0x00\n        /* \"#utility.yul\":10332:10338   */\n      dup3\n        /* \"#utility.yul\":10328:10342   */\n      add\n        /* \"#utility.yul\":10321:10379   */\n      mstore\n        /* \"#utility.yul\":10413:10421   */\n      0x6e207a65726f0000000000000000000000000000000000000000000000000000\n        /* \"#utility.yul\":10408:10410   */\n      0x20\n        /* \"#utility.yul\":10400:10406   */\n      dup3\n        /* \"#utility.yul\":10396:10411   */\n      add\n        /* \"#utility.yul\":10389:10422   */\n      mstore\n        /* \"#utility.yul\":10204:10429   */\n      pop\n      jump\t// out\n        /* \"#utility.yul\":10435:10801   */\n    tag_125:\n        /* \"#utility.yul\":10577:10580   */\n      0x00\n        /* \"#utility.yul\":10598:10665   */\n      tag_256\n        /* \"#utility.yul\":10662:10664   */\n      0x26\n        /* \"#utility.yul\":10657:10660   */\n      dup4\n        /* \"#utility.yul\":10598:10665   */\n      tag_115\n      jump\t// in\n    tag_256:\n        /* \"#utility.yul\":10591:10665   */\n      swap2\n      pop\n        /* \"#utility.yul\":10674:10767   */\n      tag_257\n        /* \"#utility.yul\":10763:10766   */\n      dup3\n        /* \"#utility.yul\":10674:10767   */\n      tag_124\n      jump\t// in\n    tag_257:\n        /* \"#utility.yul\":10792:10794   */\n      0x40\n        /* \"#utility.yul\":10787:10790   */\n      dup3\n        /* \"#utility.yul\":10783:10795   */\n      add\n        /* \"#utility.yul\":10776:10795   */\n      swap1\n      pop\n        /* \"#utility.yul\":10435:10801   */\n      swap2\n      swap1\n      pop\n      jump\t// out\n        /* \"#utility.yul\":10807:11226   */\n    tag_39:\n        /* \"#utility.yul\":10973:10977   */\n      0x00\n        /* \"#utility.yul\":11011:11013   */\n      0x20\n        /* \"#utility.yul\":11000:11009   */\n      dup3\n        /* \"#utility.yul\":10996:11014   */\n      add\n        /* \"#utility.yul\":10988:11014   */\n      swap1\n      pop\n        /* \"#utility.yul\":11060:11069   */\n      dup2\n        /* \"#utility.yul\":11054:11058   */\n      dup2\n        /* \"#utility.yul\":11050:11070   */\n      sub\n        /* \"#utility.yul\":11046:11047   */\n      0x00\n        /* \"#utility.yul\":11035:11044   */\n      dup4\n        /* \"#utility.yul\":11031:11048   */\n      add\n        /* \"#utility.yul\":11024:11071   */\n      mstore\n        /* \"#utility.yul\":11088:11219   */\n      tag_259\n        /* \"#utility.yul\":11214:11218   */\n      dup2\n        /* \"#utility.yul\":11088:11219   */\n      tag_125\n      jump\t// in\n    tag_259:\n        /* \"#utility.yul\":11080:11219   */\n      swap1\n      pop\n        /* \"#utility.yul\":10807:11226   */\n      swap2\n      swap1\n      pop\n      jump\t// out\n        /* \"#utility.yul\":11232:11412   */\n    tag_126:\n        /* \"#utility.yul\":11280:11357   */\n      0x4e487b7100000000000000000000000000000000000000000000000000000000\n        /* \"#utility.yul\":11277:11278   */\n      0x00\n        /* \"#utility.yul\":11270:11358   */\n      mstore\n        /* \"#utility.yul\":11377:11381   */\n      0x22\n        /* \"#utility.yul\":11374:11375   */\n      0x04\n        /* \"#utility.yul\":11367:11382   */\n      mstore\n        /* \"#utility.yul\":11401:11405   */\n      0x24\n        /* \"#utility.yul\":11398:11399   */\n      0x00\n        /* \"#utility.yul\":11391:11406   */\n      revert\n        /* \"#utility.yul\":11418:11738   */\n    tag_52:\n        /* \"#utility.yul\":11462:11468   */\n      0x00\n        /* \"#utility.yul\":11499:11500   */\n      0x02\n        /* \"#utility.yul\":11493:11497   */\n      dup3\n        /* \"#utility.yul\":11489:11501   */\n      div\n        /* \"#utility.yul\":11479:11501   */\n      swap1\n      pop\n        /* \"#utility.yul\":11546:11547   */\n      0x01\n        /* \"#utility.yul\":11540:11544   */\n      dup3\n        /* \"#utility.yul\":11536:11548   */\n      and\n        /* \"#utility.yul\":11567:11585   */\n      dup1\n        /* \"#utility.yul\":11557:11638   */\n      tag_262\n      jumpi\n        /* \"#utility.yul\":11623:11627   */\n      0x7f\n        /* \"#utility.yul\":11615:11621   */\n      dup3\n        /* \"#utility.yul\":11611:11628   */\n      and\n        /* \"#utility.yul\":11601:11628   */\n      swap2\n      pop\n        /* \"#utility.yul\":11557:11638   */\n    tag_262:\n        /* \"#utility.yul\":11685:11687   */\n      0x20\n        /* \"#utility.yul\":11677:11683   */\n      dup3\n        /* \"#utility.yul\":11674:11688   */\n      lt\n        /* \"#utility.yul\":11654:11672   */\n      dup2\n        /* \"#utility.yul\":11651:11689   */\n      sub\n        /* \"#utility.yul\":11648:11732   */\n      tag_263\n      jumpi\n        /* \"#utility.yul\":11704:11722   */\n      tag_264\n      tag_126\n      jump\t// in\n    tag_264:\n        /* \"#utility.yul\":11648:11732   */\n    tag_263:\n        /* \"#utility.yul\":11469:11738   */\n      pop\n        /* \"#utility.yul\":11418:11738   */\n      swap2\n      swap1\n      pop\n      jump\t// out\n        /* \"#utility.yul\":11744:11885   */\n    tag_127:\n        /* \"#utility.yul\":11793:11797   */\n      0x00\n        /* \"#utility.yul\":11816:11819   */\n      dup2\n        /* \"#utility.yul\":11808:11819   */\n      swap1\n      pop\n        /* \"#utility.yul\":11839:11842   */\n      dup2\n        /* \"#utility.yul\":11836:11837   */\n      0x00\n        /* \"#utility.yul\":11829:11843   */\n      mstore\n        /* \"#utility.yul\":11873:11877   */\n      0x20\n        /* \"#utility.yul\":11870:11871   */\n      0x00\n        /* \"#utility.yul\":11860:11878   */\n      keccak256\n        /* \"#utility.yul\":11852:11878   */\n      swap1\n      pop\n        /* \"#utility.yul\":11744:11885   */\n      swap2\n      swap1\n      pop\n      jump\t// out\n        /* \"#utility.yul\":11891:11984   */\n    tag_128:\n        /* \"#utility.yul\":11928:11934   */\n      0x00\n        /* \"#utility.yul\":11975:11977   */\n      0x20\n        /* \"#utility.yul\":11970:11972   */\n      0x1f\n        /* \"#utility.yul\":11963:11968   */\n      dup4\n        /* \"#utility.yul\":11959:11973   */\n      add\n        /* \"#utility.yul\":11955:11978   */\n      div\n        /* \"#utility.yul\":11945:11978   */\n      swap1\n      pop\n        /* \"#utility.yul\":11891:11984   */\n      swap2\n      swap1\n      pop\n      jump\t// out\n        /* \"#utility.yul\":11990:12097   */\n    tag_129:\n        /* \"#utility.yul\":12034:12042   */\n      0x00\n        /* \"#utility.yul\":12084:12089   */\n      dup3\n        /* \"#utility.yul\":12078:12082   */\n      dup3\n        /* \"#utility.yul\":12074:12090   */\n      shl\n        /* \"#utility.yul\":12053:12090   */\n      swap1\n      pop\n        /* \"#utility.yul\":11990:12097   */\n      swap3\n      swap2\n      pop\n      pop\n      jump\t// out\n        /* \"#utility.yul\":12103:12496   */\n    tag_130:\n        /* \"#utility.yul\":12172:12178   */\n      0x00\n        /* \"#utility.yul\":12222:12223   */\n      0x08\n        /* \"#utility.yul\":12210:12220   */\n      dup4\n        /* \"#utility.yul\":12206:12224   */\n      mul\n        /* \"#utility.yul\":12245:12342   */\n      tag_269\n        /* \"#utility.yul\":12275:12341   */\n      0xffffffffffffffffffffffffffffffffffffffffffffffffffffffffffffffff\n        /* \"#utility.yul\":12264:12273   */\n      dup3\n        /* \"#utility.yul\":12245:12342   */\n      tag_129\n      jump\t// in\n    tag_269:\n        /* \"#utility.yul\":12363:12402   */\n      tag_270\n        /* \"#utility.yul\":12393:12401   */\n      dup7\n        /* \"#utility.yul\":12382:12391   */\n      dup4\n        /* \"#utility.yul\":12363:12402   */\n      tag_129\n      jump\t// in\n    tag_270:\n        /* \"#utility.yul\":12351:12402   */\n      swap6\n      pop\n        /* \"#utility.yul\":12435:12439   */\n      dup1\n        /* \"#utility.yul\":12431:12440   */\n      not\n        /* \"#utility.yul\":12424:12429   */\n      dup5\n        /* \"#utility.yul\":12420:12441   */\n      and\n        /* \"#utility.yul\":12411:12441   */\n      swap4\n      pop\n        /* \"#utility.yul\":12484:12488   */\n      dup1\n        /* \"#utility.yul\":12474:12482   */\n      dup7\n        /* \"#utility.yul\":12470:12489   */\n      and\n        /* \"#utility.yul\":12463:12468   */\n      dup5\n        /* \"#utility.yul\":12460:12490   */\n      or\n        /* \"#utility.yul\":12450:12490   */\n      swap3\n      pop\n        /* \"#utility.yul\":12179:12496   */\n      pop\n      pop\n        /* \"#utility.yul\":12103:12496   */\n      swap4\n      swap3\n      pop\n      pop\n      pop\n      jump\t// out\n        /* \"#utility.yul\":12502:12562   */\n    tag_131:\n        /* \"#utility.yul\":12530:12533   */\n      0x00\n        /* \"#utility.yul\":12551:12556   */\n      dup2\n        /* \"#utility.yul\":12544:12556   */\n      swap1\n      pop\n        /* \"#utility.yul\":12502:12562   */\n      swap2\n      swap1\n      pop\n      jump\t// out\n        /* \"#utility.yul\":12568:12710   */\n    tag_132:\n        /* \"#utility.yul\":12618:12627   */\n      0x00\n        /* \"#utility.yul\":12651:12704   */\n      tag_273\n        /* \"#utility.yul\":12669:12703   */\n      tag_274\n        /* \"#utility.yul\":12678:12702   */\n      tag_275\n        /* \"#utility.yul\":12696:12701   */\n      dup5\n        /* \"#utility.yul\":12678:12702   */\n      tag_105\n      jump\t// in\n    tag_275:\n        /* \"#utility.yul\":12669:12703   */\n      tag_131\n      jump\t// in\n    tag_274:\n        /* \"#utility.yul\":12651:12704   */\n      tag_105\n      jump\t// in\n    tag_273:\n        /* \"#utility.yul\":12638:12704   */\n      swap1\n      pop\n        /* \"#utility.yul\":12568:12710   */\n      swap2\n      swap1\n      pop\n      jump\t// out\n        /* \"#utility.yul\":12716:12791   */\n    tag_133:\n        /* \"#utility.yul\":12759:12762   */\n      0x00\n        /* \"#utility.yul\":12780:12785   */\n      dup2\n        /* \"#utility.yul\":12773:12785   */\n      swap1\n      pop\n        /* \"#utility.yul\":12716:12791   */\n      swap2\n      swap1\n      pop\n      jump\t// out\n        /* \"#utility.yul\":12797:13066   */\n    tag_134:\n        /* \"#utility.yul\":12907:12946   */\n      tag_278\n        /* \"#utility.yul\":12938:12945   */\n      dup4\n        /* \"#utility.yul\":12907:12946   */\n      tag_132\n      jump\t// in\n    tag_278:\n        /* \"#utility.yul\":12968:13059   */\n      tag_279\n        /* \"#utility.yul\":13017:13058   */\n      tag_280\n        /* \"#utility.yul\":13041:13057   */\n      dup3\n        /* \"#utility.yul\":13017:13058   */\n      tag_133\n      jump\t// in\n    tag_280:\n        /* \"#utility.yul\":13009:13015   */\n      dup5\n        /* \"#utility.yul\":13002:13006   */\n      dup5\n        /* \"#utility.yul\":12996:13007   */\n      sload\n        /* \"#utility.yul\":12968:13059   */\n      tag_130\n      jump\t// in\n    tag_279:\n        /* \"#utility.yul\":12962:12966   */\n      dup3\n        /* \"#utility.yul\":12955:13060   */\n      sstore\n        /* \"#utility.yul\":12873:13066   */\n      pop\n        /* \"#utility.yul\":12797:13066   */\n      pop\n      pop\n      pop\n      jump\t// out\n        /* \"#utility.yul\":13072:13145   */\n    tag_135:\n        /* \"#utility.yul\":13117:13120   */\n      0x00\n        /* \"#utility.yul\":13072:13145   */\n      swap1\n      jump\t// out\n        /* \"#utility.yul\":13151:13340   */\n    tag_136:\n        /* \"#utility.yul\":13228:13260   */\n      tag_283\n      tag_135\n      jump\t// in\n    tag_283:\n        /* \"#utility.yul\":13269:13334   */\n      tag_284\n        /* \"#utility.yul\":13327:13333   */\n      dup2\n        /* \"#utility.yul\":13319:13325   */\n      dup5\n        /* \"#utility.yul\":13313:13317   */\n      dup5\n        /* \"#utility.yul\":13269:13334   */\n      tag_134\n      jump\t// in\n    tag_284:\n        /* \"#utility.yul\":13204:13340   */\n      pop\n        /* \"#utility.yul\":13151:13340   */\n      pop\n      pop\n      jump\t// out\n        /* \"#utility.yul\":13346:13532   */\n    tag_137:\n        /* \"#utility.yul\":13406:13526   */\n    tag_286:\n        /* \"#utility.yul\":13423:13426   */\n      dup2\n        /* \"#utility.yul\":13416:13421   */\n      dup2\n        /* \"#utility.yul\":13413:13427   */\n      lt\n        /* \"#utility.yul\":13406:13526   */\n      iszero\n      tag_288\n      jumpi\n        /* \"#utility.yul\":13477:13516   */\n      tag_289\n        /* \"#utility.yul\":13514:13515   */\n      0x00\n        /* \"#utility.yul\":13507:13512   */\n      dup3\n        /* \"#utility.yul\":13477:13516   */\n      tag_136\n      jump\t// in\n    tag_289:\n        /* \"#utility.yul\":13450:13451   */\n      0x01\n        /* \"#utility.yul\":13443:13448   */\n      dup2\n        /* \"#utility.yul\":13439:13452   */\n      add\n        /* \"#utility.yul\":13430:13452   */\n      swap1\n      pop\n        /* \"#utility.yul\":13406:13526   */\n      jump(tag_286)\n    tag_288:\n        /* \"#utility.yul\":13346:13532   */\n      pop\n      pop\n      jump\t// out\n        /* \"#utility.yul\":13538:14081   */\n    tag_138:\n        /* \"#utility.yul\":13639:13641   */\n      0x1f\n        /* \"#utility.yul\":13634:13637   */\n      dup3\n        /* \"#utility.yul\":13631:13642   */\n      gt\n        /* \"#utility.yul\":13628:14074   */\n      iszero\n      tag_291\n      jumpi\n        /* \"#utility.yul\":13673:13711   */\n      tag_292\n        /* \"#utility.yul\":13705:13710   */\n      dup2\n        /* \"#utility.yul\":13673:13711   */\n      tag_127\n      jump\t// in\n    tag_292:\n        /* \"#utility.yul\":13757:13786   */\n      tag_293\n        /* \"#utility.yul\":13775:13785   */\n      dup5\n        /* \"#utility.yul\":13757:13786   */\n      tag_128\n      jump\t// in\n    tag_293:\n        /* \"#utility.yul\":13747:13755   */\n      dup2\n        /* \"#utility.yul\":13743:13787   */\n      add\n        /* \"#utility.yul\":13940:13942   */\n      0x20\n        /* \"#utility.yul\":13928:13938   */\n      dup6\n        /* \"#utility.yul\":13925:13943   */\n      lt\n        /* \"#utility.yul\":13922:13971   */\n      iszero\n      tag_294\n      jumpi\n        /* \"#utility.yul\":13961:13969   */\n      dup2\n        /* \"#utility.yul\":13946:13969   */\n      swap1\n      pop\n        /* \"#utility.yul\":13922:13971   */\n    tag_294:\n        /* \"#utility.yul\":13984:14064   */\n      tag_295\n        /* \"#utility.yul\":14040:14062   */\n      tag_296\n        /* \"#utility.yul\":14058:14061   */\n      dup6\n        /* \"#utility.yul\":14040:14062   */\n      tag_128\n      jump\t// in\n    tag_296:\n        /* \"#utility.yul\":14030:14038   */\n      dup4\n        /* \"#utility.yul\":14026:14063   */\n      add\n        /* \"#utility.yul\":14013:14024   */\n      dup3\n        /* \"#utility.yul\":13984:14064   */\n      tag_137\n      jump\t// in\n    tag_295:\n        /* \"#utility.yul\":13643:14074   */\n      pop\n      pop\n        /* \"#utility.yul\":13628:14074   */\n    tag_291:\n        /* \"#utility.yul\":13538:14081   */\n      pop\n      pop\n      pop\n      jump\t// out\n        /* \"#utility.yul\":14087:14204   */\n    tag_139:\n        /* \"#utility.yul\":14141:14149   */\n      0x00\n        /* \"#utility.yul\":14191:14196   */\n      dup3\n        /* \"#utility.yul\":14185:14189   */\n      dup3\n        /* \"#utility.yul\":14181:14197   */\n      shr\n        /* \"#utility.yul\":14160:14197   */\n      swap1\n      pop\n        /* \"#utility.yul\":14087:14204   */\n      swap3\n      swap2\n      pop\n      pop\n      jump\t// out\n        /* \"#utility.yul\":14210:14379   */\n    tag_140:\n        /* \"#utility.yul\":14254:14260   */\n      0x00\n        /* \"#utility.yul\":14287:14338   */\n      tag_299\n        /* \"#utility.yul\":14335:14336   */\n      0x00\n        /* \"#utility.yul\":14331:14337   */\n      not\n        /* \"#utility.yul\":14323:14328   */\n      dup5\n        /* \"#utility.yul\":14320:14321   */\n      0x08\n        /* \"#utility.yul\":14316:14329   */\n      mul\n        /* \"#utility.yul\":14287:14338   */\n      tag_139\n      jump\t// in\n    tag_299:\n        /* \"#utility.yul\":14283:14339   */\n      not\n        /* \"#utility.yul\":14368:14372   */\n      dup1\n        /* \"#utility.yul\":14362:14366   */\n      dup4\n        /* \"#utility.yul\":14358:14373   */\n      and\n        /* \"#utility.yul\":14348:14373   */\n      swap2\n      pop\n        /* \"#utility.yul\":14261:14379   */\n      pop\n        /* \"#utility.yul\":14210:14379   */\n      swap3\n      swap2\n      pop\n      pop\n      jump\t// out\n        /* \"#utility.yul\":14384:14679   */\n    tag_141:\n        /* \"#utility.yul\":14460:14464   */\n      0x00\n        /* \"#utility.yul\":14606:14635   */\n      tag_301\n        /* \"#utility.yul\":14631:14634   */\n      dup4\n        /* \"#utility.yul\":14625:14629   */\n      dup4\n        /* \"#utility.yul\":14606:14635   */\n      tag_140\n      jump\t// in\n    tag_301:\n        /* \"#utility.yul\":14598:14635   */\n      swap2\n      pop\n        /* \"#utility.yul\":14668:14671   */\n      dup3\n        /* \"#utility.yul\":14665:14666   */\n      0x02\n        /* \"#utility.yul\":14661:14672   */\n      mul\n        /* \"#utility.yul\":14655:14659   */\n      dup3\n        /* \"#utility.yul\":14652:14673   */\n      or\n        /* \"#utility.yul\":14644:14673   */\n      swap1\n      pop\n        /* \"#utility.yul\":14384:14679   */\n      swap3\n      swap2\n      pop\n      pop\n      jump\t// out\n        /* \"#utility.yul\":14684:16079   */\n    tag_42:\n        /* \"#utility.yul\":14801:14838   */\n      tag_303\n        /* \"#utility.yul\":14834:14837   */\n      dup3\n        /* \"#utility.yul\":14801:14838   */\n      tag_114\n      jump\t// in\n    tag_303:\n        /* \"#utility.yul\":14903:14921   */\n      0xffffffffffffffff\n        /* \"#utility.yul\":14895:14901   */\n      dup2\n        /* \"#utility.yul\":14892:14922   */\n      gt\n        /* \"#utility.yul\":14889:14945   */\n      iszero\n      tag_304\n      jumpi\n        /* \"#utility.yul\":14925:14943   */\n      tag_305\n      tag_98\n      jump\t// in\n    tag_305:\n        /* \"#utility.yul\":14889:14945   */\n    tag_304:\n        /* \"#utility.yul\":14969:15007   */\n      tag_306\n        /* \"#utility.yul\":15001:15005   */\n      dup3\n        /* \"#utility.yul\":14995:15006   */\n      sload\n        /* \"#utility.yul\":14969:15007   */\n      tag_52\n      jump\t// in\n    tag_306:\n        /* \"#utility.yul\":15054:15121   */\n      tag_307\n        /* \"#utility.yul\":15114:15120   */\n      dup3\n        /* \"#utility.yul\":15106:15112   */\n      dup3\n        /* \"#utility.yul\":15100:15104   */\n      dup6\n        /* \"#utility.yul\":15054:15121   */\n      tag_138\n      jump\t// in\n    tag_307:\n        /* \"#utility.yul\":15148:15149   */\n      0x00\n        /* \"#utility.yul\":15172:15176   */\n      0x20\n        /* \"#utility.yul\":15159:15176   */\n      swap1\n      pop\n        /* \"#utility.yul\":15204:15206   */\n      0x1f\n        /* \"#utility.yul\":15196:15202   */\n      dup4\n        /* \"#utility.yul\":15193:15207   */\n      gt\n        /* \"#utility.yul\":15221:15222   */\n      0x01\n        /* \"#utility.yul\":15216:15834   */\n      dup2\n      eq\n      tag_309\n      jumpi\n        /* \"#utility.yul\":15878:15879   */\n      0x00\n        /* \"#utility.yul\":15895:15901   */\n      dup5\n        /* \"#utility.yul\":15892:15969   */\n      iszero\n      tag_310\n      jumpi\n        /* \"#utility.yul\":15944:15953   */\n      dup3\n        /* \"#utility.yul\":15939:15942   */\n      dup8\n        /* \"#utility.yul\":15935:15954   */\n      add\n        /* \"#utility.yul\":15929:15955   */\n      mload\n        /* \"#utility.yul\":15920:15955   */\n      swap1\n      pop\n        /* \"#utility.yul\":15892:15969   */\n    tag_310:\n        /* \"#utility.yul\":15995:16062   */\n      tag_311\n        /* \"#utility.yul\":16055:16061   */\n      dup6\n        /* \"#utility.yul\":16048:16053   */\n      dup3\n        /* \"#utility.yul\":15995:16062   */\n      tag_141\n      jump\t// in\n    tag_311:\n        /* \"#utility.yul\":15989:15993   */\n      dup7\n        /* \"#utility.yul\":15982:16063   */\n      sstore\n        /* \"#utility.yul\":15851:16073   */\n      pop\n        /* \"#utility.yul\":15186:16073   */\n      jump(tag_308)\n        /* \"#utility.yul\":15216:15834   */\n    tag_309:\n        /* \"#utility.yul\":15268:15272   */\n      0x1f\n        /* \"#utility.yul\":15264:15273   */\n      not\n        /* \"#utility.yul\":15256:15262   */\n      dup5\n        /* \"#utility.yul\":15252:15274   */\n      and\n        /* \"#utility.yul\":15302:15339   */\n      tag_312\n        /* \"#utility.yul\":15334:15338   */\n      dup7\n        /* \"#utility.yul\":15302:15339   */\n      tag_127\n      jump\t// in\n    tag_312:\n        /* \"#utility.yul\":15361:15362   */\n      0x00\n        /* \"#utility.yul\":15375:15583   */\n    tag_313:\n        /* \"#utility.yul\":15389:15396   */\n      dup3\n        /* \"#utility.yul\":15386:15387   */\n      dup2\n        /* \"#utility.yul\":15383:15397   */\n      lt\n        /* \"#utility.yul\":15375:15583   */\n      iszero\n      tag_315\n      jumpi\n        /* \"#utility.yul\":15468:15477   */\n      dup5\n        /* \"#utility.yul\":15463:15466   */\n      dup10\n        /* \"#utility.yul\":15459:15478   */\n      add\n        /* \"#utility.yul\":15453:15479   */\n      mload\n        /* \"#utility.yul\":15445:15451   */\n      dup3\n        /* \"#utility.yul\":15438:15480   */\n      sstore\n        /* \"#utility.yul\":15519:15520   */\n      0x01\n        /* \"#utility.yul\":15511:15517   */\n      dup3\n        /* \"#utility.yul\":15507:15521   */\n      add\n        /* \"#utility.yul\":15497:15521   */\n      swap2\n      pop\n        /* \"#utility.yul\":15566:15568   */\n      0x20\n        /* \"#utility.yul\":15555:15564   */\n      dup6\n        /* \"#utility.yul\":15551:15569   */\n      add\n        /* \"#utility.yul\":15538:15569   */\n      swap5\n      pop\n        /* \"#utility.yul\":15412:15416   */\n      0x20\n        /* \"#utility.yul\":15409:15410   */\n      dup2\n        /* \"#utility.yul\":15405:15417   */\n      add\n        /* \"#utility.yul\":15400:15417   */\n      swap1\n      pop\n        /* \"#utility.yul\":15375:15583   */\n      jump(tag_313)\n    tag_315:\n        /* \"#utility.yul\":15611:15617   */\n      dup7\n        /* \"#utility.yul\":15602:15609   */\n      dup4\n        /* \"#utility.yul\":15599:15618   */\n      lt\n        /* \"#utility.yul\":15596:15775   */\n      iszero\n      tag_316\n      jumpi\n        /* \"#utility.yul\":15669:15678   */\n      dup5\n        /* \"#utility.yul\":15664:15667   */\n      dup10\n        /* \"#utility.yul\":15660:15679   */\n      add\n        /* \"#utility.yul\":15654:15680   */\n      mload\n        /* \"#utility.yul\":15712:15760   */\n      tag_317\n        /* \"#utility.yul\":15754:15758   */\n      0x1f\n        /* \"#utility.yul\":15746:15752   */\n      dup10\n        /* \"#utility.yul\":15742:15759   */\n      and\n        /* \"#utility.yul\":15731:15740   */\n      dup3\n        /* \"#utility.yul\":15712:15760   */\n      tag_140\n      jump\t// in\n    tag_317:\n        /* \"#utility.yul\":15704:15710   */\n      dup4\n        /* \"#utility.yul\":15697:15761   */\n      sstore\n        /* \"#utility.yul\":15619:15775   */\n      pop\n        /* \"#utility.yul\":15596:15775   */\n    tag_316:\n        /* \"#utility.yul\":15821:15822   */\n      0x01\n        /* \"#utility.yul\":15817:15818   */\n      0x02\n        /* \"#utility.yul\":15809:15815   */\n      dup9\n        /* \"#utility.yul\":15805:15819   */\n      mul\n        /* \"#utility.yul\":15801:15823   */\n      add\n        /* \"#utility.yul\":15795:15799   */\n      dup9\n        /* \"#utility.yul\":15788:15824   */\n      sstore\n        /* \"#utility.yul\":15223:15834   */\n      pop\n      pop\n      pop\n        /* \"#utility.yul\":15186:16073   */\n    tag_308:\n      pop\n        /* \"#utility.yul\":14776:16079   */\n      pop\n      pop\n      pop\n        /* \"#utility.yul\":14684:16079   */\n      pop\n      pop\n      jump\t// out\n        /* \"#utility.yul\":16085:16709   */\n    tag_46:\n        /* \"#utility.yul\":16274:16278   */\n      0x00\n        /* \"#utility.yul\":16312:16314   */\n      0x60\n        /* \"#utility.yul\":16301:16310   */\n      dup3\n        /* \"#utility.yul\":16297:16315   */\n      add\n        /* \"#utility.yul\":16289:16315   */\n      swap1\n      pop\n        /* \"#utility.yul\":16361:16370   */\n      dup2\n        /* \"#utility.yul\":16355:16359   */\n      dup2\n        /* \"#utility.yul\":16351:16371   */\n      sub\n        /* \"#utility.yul\":16347:16348   */\n      0x00\n        /* \"#utility.yul\":16336:16345   */\n      dup4\n        /* \"#utility.yul\":16332:16349   */\n      add\n        /* \"#utility.yul\":16325:16372   */\n      mstore\n        /* \"#utility.yul\":16389:16467   */\n      tag_319\n        /* \"#utility.yul\":16462:16466   */\n      dup2\n        /* \"#utility.yul\":16453:16459   */\n      dup7\n        /* \"#utility.yul\":16389:16467   */\n      tag_117\n      jump\t// in\n    tag_319:\n        /* \"#utility.yul\":16381:16467   */\n      swap1\n      pop\n        /* \"#utility.yul\":16514:16523   */\n      dup2\n        /* \"#utility.yul\":16508:16512   */\n      dup2\n        /* \"#utility.yul\":16504:16524   */\n      sub\n        /* \"#utility.yul\":16499:16501   */\n      0x20\n        /* \"#utility.yul\":16488:16497   */\n      dup4\n        /* \"#utility.yul\":16484:16502   */\n      add\n        /* \"#utility.yul\":16477:16525   */\n      mstore\n        /* \"#utility.yul\":16542:16620   */\n      tag_320\n        /* \"#utility.yul\":16615:16619   */\n      dup2\n        /* \"#utility.yul\":16606:16612   */\n      dup6\n        /* \"#utility.yul\":16542:16620   */\n      tag_117\n      jump\t// in\n    tag_320:\n        /* \"#utility.yul\":16534:16620   */\n      swap1\n      pop\n        /* \"#utility.yul\":16630:16702   */\n      tag_321\n        /* \"#utility.yul\":16698:16700   */\n      0x40\n        /* \"#utility.yul\":16687:16696   */\n      dup4\n        /* \"#utility.yul\":16683:16701   */\n      add\n        /* \"#utility.yul\":16674:16680   */\n      dup5\n        /* \"#utility.yul\":16630:16702   */\n      tag_108\n      jump\t// in\n    tag_321:\n        /* \"#utility.yul\":16085:16709   */\n      swap5\n      swap4\n      pop\n      pop\n      pop\n      pop\n      jump\t// out\n        /* \"#utility.yul\":16715:16880   */\n    tag_142:\n        /* \"#utility.yul\":16855:16872   */\n      0x496e76616c696420626f6f6b2049440000000000000000000000000000000000\n        /* \"#utility.yul\":16851:16852   */\n      0x00\n        /* \"#utility.yul\":16843:16849   */\n      dup3\n        /* \"#utility.yul\":16839:16853   */\n      add\n        /* \"#utility.yul\":16832:16873   */\n      mstore\n        /* \"#utility.yul\":16715:16880   */\n      pop\n      jump\t// out\n        /* \"#utility.yul\":16886:17252   */\n    tag_143:\n        /* \"#utility.yul\":17028:17031   */\n      0x00\n        /* \"#utility.yul\":17049:17116   */\n      tag_324\n        /* \"#utility.yul\":17113:17115   */\n      0x0f\n        /* \"#utility.yul\":17108:17111   */\n      dup4\n        /* \"#utility.yul\":17049:17116   */\n      tag_115\n      jump\t// in\n    tag_324:\n        /* \"#utility.yul\":17042:17116   */\n      swap2\n      pop\n        /* \"#utility.yul\":17125:17218   */\n      tag_325\n        /* \"#utility.yul\":17214:17217   */\n      dup3\n        /* \"#utility.yul\":17125:17218   */\n      tag_142\n      jump\t// in\n    tag_325:\n        /* \"#utility.yul\":17243:17245   */\n      0x20\n        /* \"#utility.yul\":17238:17241   */\n      dup3\n        /* \"#utility.yul\":17234:17246   */\n      add\n        /* \"#utility.yul\":17227:17246   */\n      swap1\n      pop\n        /* \"#utility.yul\":16886:17252   */\n      swap2\n      swap1\n      pop\n      jump\t// out\n        /* \"#utility.yul\":17258:17677   */\n    tag_65:\n        /* \"#utility.yul\":17424:17428   */\n      0x00\n        /* \"#utility.yul\":17462:17464   */\n      0x20\n        /* \"#utility.yul\":17451:17460   */\n      dup3\n        /* \"#utility.yul\":17447:17465   */\n      add\n        /* \"#utility.yul\":17439:17465   */\n      swap1\n      pop\n        /* \"#utility.yul\":17511:17520   */\n      dup2\n        /* \"#utility.yul\":17505:17509   */\n      dup2\n        /* \"#utility.yul\":17501:17521   */\n      sub\n        /* \"#utility.yul\":17497:17498   */\n      0x00\n        /* \"#utility.yul\":17486:17495   */\n      dup4\n        /* \"#utility.yul\":17482:17499   */\n      add\n        /* \"#utility.yul\":17475:17522   */\n      mstore\n        /* \"#utility.yul\":17539:17670   */\n      tag_327\n        /* \"#utility.yul\":17665:17669   */\n      dup2\n        /* \"#utility.yul\":17539:17670   */\n      tag_143\n      jump\t// in\n    tag_327:\n        /* \"#utility.yul\":17531:17670   */\n      swap1\n      pop\n        /* \"#utility.yul\":17258:17677   */\n      swap2\n      swap1\n      pop\n      jump\t// out\n        /* \"#utility.yul\":17683:17863   */\n    tag_68:\n        /* \"#utility.yul\":17731:17808   */\n      0x4e487b7100000000000000000000000000000000000000000000000000000000\n        /* \"#utility.yul\":17728:17729   */\n      0x00\n        /* \"#utility.yul\":17721:17809   */\n      mstore\n        /* \"#utility.yul\":17828:17832   */\n      0x32\n        /* \"#utility.yul\":17825:17826   */\n      0x04\n        /* \"#utility.yul\":17818:17833   */\n      mstore\n        /* \"#utility.yul\":17852:17856   */\n      0x24\n        /* \"#utility.yul\":17849:17850   */\n      0x00\n        /* \"#utility.yul\":17842:17857   */\n      revert\n        /* \"#utility.yul\":17869:18049   */\n    tag_144:\n        /* \"#utility.yul\":18009:18041   */\n      0x426f6f6b206973206e6f7420617661696c61626c6520666f722072656e740000\n        /* \"#utility.yul\":18005:18006   */\n      0x00\n        /* \"#utility.yul\":17997:18003   */\n      dup3\n        /* \"#utility.yul\":17993:18007   */\n      add\n        /* \"#utility.yul\":17986:18042   */\n      mstore\n        /* \"#utility.yul\":17869:18049   */\n      pop\n      jump\t// out\n        /* \"#utility.yul\":18055:18421   */\n    tag_145:\n        /* \"#utility.yul\":18197:18200   */\n      0x00\n        /* \"#utility.yul\":18218:18285   */\n      tag_331\n        /* \"#utility.yul\":18282:18284   */\n      0x1e\n        /* \"#utility.yul\":18277:18280   */\n      dup4\n        /* \"#utility.yul\":18218:18285   */\n      tag_115\n      jump\t// in\n    tag_331:\n        /* \"#utility.yul\":18211:18285   */\n      swap2\n      pop\n        /* \"#utility.yul\":18294:18387   */\n      tag_332\n        /* \"#utility.yul\":18383:18386   */\n      dup3\n        /* \"#utility.yul\":18294:18387   */\n      tag_144\n      jump\t// in\n    tag_332:\n        /* \"#utility.yul\":18412:18414   */\n      0x20\n        /* \"#utility.yul\":18407:18410   */\n      dup3\n        /* \"#utility.yul\":18403:18415   */\n      add\n        /* \"#utility.yul\":18396:18415   */\n      swap1\n      pop\n        /* \"#utility.yul\":18055:18421   */\n      swap2\n      swap1\n      pop\n      jump\t// out\n        /* \"#utility.yul\":18427:18846   */\n    tag_72:\n        /* \"#utility.yul\":18593:18597   */\n      0x00\n        /* \"#utility.yul\":18631:18633   */\n      0x20\n        /* \"#utility.yul\":18620:18629   */\n      dup3\n        /* \"#utility.yul\":18616:18634   */\n      add\n        /* \"#utility.yul\":18608:18634   */\n      swap1\n      pop\n        /* \"#utility.yul\":18680:18689   */\n      dup2\n        /* \"#utility.yul\":18674:18678   */\n      dup2\n        /* \"#utility.yul\":18670:18690   */\n      sub\n        /* \"#utility.yul\":18666:18667   */\n      0x00\n        /* \"#utility.yul\":18655:18664   */\n      dup4\n        /* \"#utility.yul\":18651:18668   */\n      add\n        /* \"#utility.yul\":18644:18691   */\n      mstore\n        /* \"#utility.yul\":18708:18839   */\n      tag_334\n        /* \"#utility.yul\":18834:18838   */\n      dup2\n        /* \"#utility.yul\":18708:18839   */\n      tag_145\n      jump\t// in\n    tag_334:\n        /* \"#utility.yul\":18700:18839   */\n      swap1\n      pop\n        /* \"#utility.yul\":18427:18846   */\n      swap2\n      swap1\n      pop\n      jump\t// out\n        /* \"#utility.yul\":18852:19032   */\n    tag_146:\n        /* \"#utility.yul\":18900:18977   */\n      0x4e487b7100000000000000000000000000000000000000000000000000000000\n        /* \"#utility.yul\":18897:18898   */\n      0x00\n        /* \"#utility.yul\":18890:18978   */\n      mstore\n        /* \"#utility.yul\":18997:19001   */\n      0x11\n        /* \"#utility.yul\":18994:18995   */\n      0x04\n        /* \"#utility.yul\":18987:19002   */\n      mstore\n        /* \"#utility.yul\":19021:19025   */\n      0x24\n        /* \"#utility.yul\":19018:19019   */\n      0x00\n        /* \"#utility.yul\":19011:19026   */\n      revert\n        /* \"#utility.yul\":19038:19448   */\n    tag_77:\n        /* \"#utility.yul\":19078:19085   */\n      0x00\n        /* \"#utility.yul\":19101:19121   */\n      tag_337\n        /* \"#utility.yul\":19119:19120   */\n      dup3\n        /* \"#utility.yul\":19101:19121   */\n      tag_105\n      jump\t// in\n    tag_337:\n        /* \"#utility.yul\":19096:19121   */\n      swap2\n      pop\n        /* \"#utility.yul\":19135:19155   */\n      tag_338\n        /* \"#utility.yul\":19153:19154   */\n      dup4\n        /* \"#utility.yul\":19135:19155   */\n      tag_105\n      jump\t// in\n    tag_338:\n        /* \"#utility.yul\":19130:19155   */\n      swap3\n      pop\n        /* \"#utility.yul\":19190:19191   */\n      dup3\n        /* \"#utility.yul\":19187:19188   */\n      dup3\n        /* \"#utility.yul\":19183:19192   */\n      mul\n        /* \"#utility.yul\":19212:19242   */\n      tag_339\n        /* \"#utility.yul\":19230:19241   */\n      dup2\n        /* \"#utility.yul\":19212:19242   */\n      tag_105\n      jump\t// in\n    tag_339:\n        /* \"#utility.yul\":19201:19242   */\n      swap2\n      pop\n        /* \"#utility.yul\":19391:19392   */\n      dup3\n        /* \"#utility.yul\":19382:19389   */\n      dup3\n        /* \"#utility.yul\":19378:19393   */\n      div\n        /* \"#utility.yul\":19375:19376   */\n      dup5\n        /* \"#utility.yul\":19372:19394   */\n      eq\n        /* \"#utility.yul\":19352:19353   */\n      dup4\n        /* \"#utility.yul\":19345:19354   */\n      iszero\n        /* \"#utility.yul\":19325:19408   */\n      or\n        /* \"#utility.yul\":19302:19441   */\n      tag_340\n      jumpi\n        /* \"#utility.yul\":19421:19439   */\n      tag_341\n      tag_146\n      jump\t// in\n    tag_341:\n        /* \"#utility.yul\":19302:19441   */\n    tag_340:\n        /* \"#utility.yul\":19086:19448   */\n      pop\n        /* \"#utility.yul\":19038:19448   */\n      swap3\n      swap2\n      pop\n      pop\n      jump\t// out\n        /* \"#utility.yul\":19454:19631   */\n    tag_147:\n        /* \"#utility.yul\":19594:19623   */\n      0x496e73756666696369656e742072656e74616c207061796d656e740000000000\n        /* \"#utility.yul\":19590:19591   */\n      0x00\n        /* \"#utility.yul\":19582:19588   */\n      dup3\n        /* \"#utility.yul\":19578:19592   */\n      add\n        /* \"#utility.yul\":19571:19624   */\n      mstore\n        /* \"#utility.yul\":19454:19631   */\n      pop\n      jump\t// out\n        /* \"#utility.yul\":19637:20003   */\n    tag_148:\n        /* \"#utility.yul\":19779:19782   */\n      0x00\n        /* \"#utility.yul\":19800:19867   */\n      tag_344\n        /* \"#utility.yul\":19864:19866   */\n      0x1b\n        /* \"#utility.yul\":19859:19862   */\n      dup4\n        /* \"#utility.yul\":19800:19867   */\n      tag_115\n      jump\t// in\n    tag_344:\n        /* \"#utility.yul\":19793:19867   */\n      swap2\n      pop\n        /* \"#utility.yul\":19876:19969   */\n      tag_345\n        /* \"#utility.yul\":19965:19968   */\n      dup3\n        /* \"#utility.yul\":19876:19969   */\n      tag_147\n      jump\t// in\n    tag_345:\n        /* \"#utility.yul\":19994:19996   */\n      0x20\n        /* \"#utility.yul\":19989:19992   */\n      dup3\n        /* \"#utility.yul\":19985:19997   */\n      add\n        /* \"#utility.yul\":19978:19997   */\n      swap1\n      pop\n        /* \"#utility.yul\":19637:20003   */\n      swap2\n      swap1\n      pop\n      jump\t// out\n        /* \"#utility.yul\":20009:20428   */\n    tag_80:\n        /* \"#utility.yul\":20175:20179   */\n      0x00\n        /* \"#utility.yul\":20213:20215   */\n      0x20\n        /* \"#utility.yul\":20202:20211   */\n      dup3\n        /* \"#utility.yul\":20198:20216   */\n      add\n        /* \"#utility.yul\":20190:20216   */\n      swap1\n      pop\n        /* \"#utility.yul\":20262:20271   */\n      dup2\n        /* \"#utility.yul\":20256:20260   */\n      dup2\n        /* \"#utility.yul\":20252:20272   */\n      sub\n        /* \"#utility.yul\":20248:20249   */\n      0x00\n        /* \"#utility.yul\":20237:20246   */\n      dup4\n        /* \"#utility.yul\":20233:20250   */\n      add\n        /* \"#utility.yul\":20226:20273   */\n      mstore\n        /* \"#utility.yul\":20290:20421   */\n      tag_347\n        /* \"#utility.yul\":20416:20420   */\n      dup2\n        /* \"#utility.yul\":20290:20421   */\n      tag_148\n      jump\t// in\n    tag_347:\n        /* \"#utility.yul\":20282:20421   */\n      swap1\n      pop\n        /* \"#utility.yul\":20009:20428   */\n      swap2\n      swap1\n      pop\n      jump\t// out\n        /* \"#utility.yul\":20434:20625   */\n    tag_83:\n        /* \"#utility.yul\":20474:20477   */\n      0x00\n        /* \"#utility.yul\":20493:20513   */\n      tag_349\n        /* \"#utility.yul\":20511:20512   */\n      dup3\n        /* \"#utility.yul\":20493:20513   */\n      tag_105\n      jump\t// in\n    tag_349:\n        /* \"#utility.yul\":20488:20513   */\n      swap2\n      pop\n        /* \"#utility.yul\":20527:20547   */\n      tag_350\n        /* \"#utility.yul\":20545:20546   */\n      dup4\n        /* \"#utility.yul\":20527:20547   */\n      tag_105\n      jump\t// in\n    tag_350:\n        /* \"#utility.yul\":20522:20547   */\n      swap3\n      pop\n        /* \"#utility.yul\":20570:20571   */\n      dup3\n        /* \"#utility.yul\":20567:20568   */\n      dup3\n        /* \"#utility.yul\":20563:20572   */\n      add\n        /* \"#utility.yul\":20556:20572   */\n      swap1\n      pop\n        /* \"#utility.yul\":20591:20594   */\n      dup1\n        /* \"#utility.yul\":20588:20589   */\n      dup3\n        /* \"#utility.yul\":20585:20595   */\n      gt\n        /* \"#utility.yul\":20582:20618   */\n      iszero\n      tag_351\n      jumpi\n        /* \"#utility.yul\":20598:20616   */\n      tag_352\n      tag_146\n      jump\t// in\n    tag_352:\n        /* \"#utility.yul\":20582:20618   */\n    tag_351:\n        /* \"#utility.yul\":20434:20625   */\n      swap3\n      swap2\n      pop\n      pop\n      jump\t// out\n        /* \"#utility.yul\":20631:20825   */\n    tag_88:\n        /* \"#utility.yul\":20671:20675   */\n      0x00\n        /* \"#utility.yul\":20691:20711   */\n      tag_354\n        /* \"#utility.yul\":20709:20710   */\n      dup3\n        /* \"#utility.yul\":20691:20711   */\n      tag_105\n      jump\t// in\n    tag_354:\n        /* \"#utility.yul\":20686:20711   */\n      swap2\n      pop\n        /* \"#utility.yul\":20725:20745   */\n      tag_355\n        /* \"#utility.yul\":20743:20744   */\n      dup4\n        /* \"#utility.yul\":20725:20745   */\n      tag_105\n      jump\t// in\n    tag_355:\n        /* \"#utility.yul\":20720:20745   */\n      swap3\n      pop\n        /* \"#utility.yul\":20769:20770   */\n      dup3\n        /* \"#utility.yul\":20766:20767   */\n      dup3\n        /* \"#utility.yul\":20762:20771   */\n      sub\n        /* \"#utility.yul\":20754:20771   */\n      swap1\n      pop\n        /* \"#utility.yul\":20793:20794   */\n      dup2\n        /* \"#utility.yul\":20787:20791   */\n      dup2\n        /* \"#utility.yul\":20784:20795   */\n      gt\n        /* \"#utility.yul\":20781:20818   */\n      iszero\n      tag_356\n      jumpi\n        /* \"#utility.yul\":20798:20816   */\n      tag_357\n      tag_146\n      jump\t// in\n    tag_357:\n        /* \"#utility.yul\":20781:20818   */\n    tag_356:\n        /* \"#utility.yul\":20631:20825   */\n      swap3\n      swap2\n      pop\n      pop\n      jump\t// out\n\n    auxdata: 0xa2646970667358221220de6a1a75598c31f1608581e727f6c965c79b0ddcfa53ccb84f0d816b5f2a146664736f6c634300081a0033\n}\n",
				"bytecode": {
					"linkReferences": {},
					"object": "6080604052348015600e575f80fd5b506113be8061001c5f395ff3fe60806040526004361061003e575f3560e01c8063042662241461004257806329646ee91461007e57806368744046146100ba578063d43a4276146100fc575b5f80fd5b34801561004d575f80fd5b5061006860048036038101906100639190610a30565b610118565b6040516100759190610ac7565b60405180910390f35b348015610089575f80fd5b506100a4600480360381019061009f9190610b3a565b610421565b6040516100b19190610ac7565b60405180910390f35b3480156100c5575f80fd5b506100e060048036038101906100db9190610b78565b61044c565b6040516100f39796959493929190610c2c565b60405180910390f35b61011660048036038101906101119190610ca7565b6105ee565b005b5f8084511161015c576040517f08c379a000000000000000000000000000000000000000000000000000000000815260040161015390610d2f565b60405180910390fd5b5f83511161019f576040517f08c379a000000000000000000000000000000000000000000000000000000000815260040161019690610d97565b60405180910390fd5b5f82116101e1576040517f08c379a00000000000000000000000000000000000000000000000000000000081526004016101d890610e25565b60405180910390fd5b5f6040518060e001604052803373ffffffffffffffffffffffffffffffffffffffff1681526020018681526020018581526020016001151581526020018481526020015f73ffffffffffffffffffffffffffffffffffffffff1681526020015f81525090505f808054905090505f82908060018154018082558091505060019003905f5260205f2090600702015f909190919091505f820151815f015f6101000a81548173ffffffffffffffffffffffffffffffffffffffff021916908373ffffffffffffffffffffffffffffffffffffffff16021790555060208201518160010190816102cf919061103d565b5060408201518160020190816102e5919061103d565b506060820151816003015f6101000a81548160ff0219169083151502179055506080820151816004015560a0820151816005015f6101000a81548173ffffffffffffffffffffffffffffffffffffffff021916908373ffffffffffffffffffffffffffffffffffffffff16021790555060c08201518160060155505060015f3373ffffffffffffffffffffffffffffffffffffffff1673ffffffffffffffffffffffffffffffffffffffff1681526020019081526020015f2081908060018154018082558091505060019003905f5260205f20015f90919091909150553373ffffffffffffffffffffffffffffffffffffffff16817f0ce4df713f464f071c2a16d0eed871906db63a39cd7b7353cb4102ff1343667f88888860405161040d9392919061110c565b60405180910390a380925050509392505050565b6001602052815f5260405f20818154811061043a575f80fd5b905f5260205f20015f91509150505481565b5f818154811061045a575f80fd5b905f5260205f2090600702015f91509050805f015f9054906101000a900473ffffffffffffffffffffffffffffffffffffffff169080600101805461049e90610e70565b80601f01602080910402602001604051908101604052809291908181526020018280546104ca90610e70565b80156105155780601f106104ec57610100808354040283529160200191610515565b820191905f5260205f20905b8154815290600101906020018083116104f857829003601f168201915b50505050509080600201805461052a90610e70565b80601f016020809104026020016040519081016040528092919081815260200182805461055690610e70565b80156105a15780601f10610578576101008083540402835291602001916105a1565b820191905f5260205f20905b81548152906001019060200180831161058457829003601f168201915b505050505090806003015f9054906101000a900460ff1690806004015490806005015f9054906101000a900473ffffffffffffffffffffffffffffffffffffffff16908060060154905087565b5f805490508210610634576040517f08c379a000000000000000000000000000000000000000000000000000000000815260040161062b90611199565b60405180910390fd5b5f8281548110610647576106466111b7565b5b905f5260205f2090600702016003015f9054906101000a900460ff166106a2576040517f08c379a00000000000000000000000000000000000000000000000000000000081526004016106999061122e565b60405180910390fd5b5f8083815481106106b6576106b56111b7565b5b905f5260205f20906007020190505f8282600401546106d59190611279565b90508034101561071a576040517f08c379a000000000000000000000000000000000000000000000000000000000815260040161071190611304565b60405180910390fd5b5f826003015f6101000a81548160ff02191690831515021790555033826005015f6101000a81548173ffffffffffffffffffffffffffffffffffffffff021916908373ffffffffffffffffffffffffffffffffffffffff16021790555062015180836107869190611279565b426107919190611322565b8260060181905550815f015f9054906101000a900473ffffffffffffffffffffffffffffffffffffffff1673ffffffffffffffffffffffffffffffffffffffff166108fc8290811502906040515f60405180830381858888f193505050501580156107fe573d5f803e3d5ffd5b5080341115610857573373ffffffffffffffffffffffffffffffffffffffff166108fc823461082d9190611355565b90811502906040515f60405180830381858888f19350505050158015610855573d5f803e3d5ffd5b505b3373ffffffffffffffffffffffffffffffffffffffff16847f43be9cce6f4d2c3b94fc5d534505c6370ef4e2b927078ad67bb7f533bad9dfcc84600601546040516108a29190610ac7565b60405180910390a350505050565b5f604051905090565b5f80fd5b5f80fd5b5f80fd5b5f80fd5b5f601f19601f8301169050919050565b7f4e487b71000000000000000000000000000000000000000000000000000000005f52604160045260245ffd5b61090f826108c9565b810181811067ffffffffffffffff8211171561092e5761092d6108d9565b5b80604052505050565b5f6109406108b0565b905061094c8282610906565b919050565b5f67ffffffffffffffff82111561096b5761096a6108d9565b5b610974826108c9565b9050602081019050919050565b828183375f83830152505050565b5f6109a161099c84610951565b610937565b9050828152602081018484840111156109bd576109bc6108c5565b5b6109c8848285610981565b509392505050565b5f82601f8301126109e4576109e36108c1565b5b81356109f484826020860161098f565b91505092915050565b5f819050919050565b610a0f816109fd565b8114610a19575f80fd5b50565b5f81359050610a2a81610a06565b92915050565b5f805f60608486031215610a4757610a466108b9565b5b5f84013567ffffffffffffffff811115610a6457610a636108bd565b5b610a70868287016109d0565b935050602084013567ffffffffffffffff811115610a9157610a906108bd565b5b610a9d868287016109d0565b9250506040610aae86828701610a1c565b9150509250925092565b610ac1816109fd565b82525050565b5f602082019050610ada5f830184610ab8565b92915050565b5f73ffffffffffffffffffffffffffffffffffffffff82169050919050565b5f610b0982610ae0565b9050919050565b610b1981610aff565b8114610b23575f80fd5b50565b5f81359050610b3481610b10565b92915050565b5f8060408385031215610b5057610b4f6108b9565b5b5f610b5d85828601610b26565b9250506020610b6e85828601610a1c565b9150509250929050565b5f60208284031215610b8d57610b8c6108b9565b5b5f610b9a84828501610a1c565b91505092915050565b610bac81610aff565b82525050565b5f81519050919050565b5f82825260208201905092915050565b8281835e5f83830152505050565b5f610be482610bb2565b610bee8185610bbc565b9350610bfe818560208601610bcc565b610c07816108c9565b840191505092915050565b5f8115159050919050565b610c2681610c12565b82525050565b5f60e082019050610c3f5f83018a610ba3565b8181036020830152610c518189610bda565b90508181036040830152610c658188610bda565b9050610c746060830187610c1d565b610c816080830186610ab8565b610c8e60a0830185610ba3565b610c9b60c0830184610ab8565b98975050505050505050565b5f8060408385031215610cbd57610cbc6108b9565b5b5f610cca85828601610a1c565b9250506020610cdb85828601610a1c565b9150509250929050565b7f5469746c652063616e6e6f7420626520656d70747900000000000000000000005f82015250565b5f610d19601583610bbc565b9150610d2482610ce5565b602082019050919050565b5f6020820190508181035f830152610d4681610d0d565b9050919050565b7f417574686f722063616e6e6f7420626520656d707479000000000000000000005f82015250565b5f610d81601683610bbc565b9150610d8c82610d4d565b602082019050919050565b5f6020820190508181035f830152610dae81610d75565b9050919050565b7f52656e74616c207072696365206d7573742062652067726561746572207468615f8201527f6e207a65726f0000000000000000000000000000000000000000000000000000602082015250565b5f610e0f602683610bbc565b9150610e1a82610db5565b604082019050919050565b5f6020820190508181035f830152610e3c81610e03565b9050919050565b7f4e487b71000000000000000000000000000000000000000000000000000000005f52602260045260245ffd5b5f6002820490506001821680610e8757607f821691505b602082108103610e9a57610e99610e43565b5b50919050565b5f819050815f5260205f209050919050565b5f6020601f8301049050919050565b5f82821b905092915050565b5f60088302610efc7fffffffffffffffffffffffffffffffffffffffffffffffffffffffffffffffff82610ec1565b610f068683610ec1565b95508019841693508086168417925050509392505050565b5f819050919050565b5f610f41610f3c610f37846109fd565b610f1e565b6109fd565b9050919050565b5f819050919050565b610f5a83610f27565b610f6e610f6682610f48565b848454610ecd565b825550505050565b5f90565b610f82610f76565b610f8d818484610f51565b505050565b5b81811015610fb057610fa55f82610f7a565b600181019050610f93565b5050565b601f821115610ff557610fc681610ea0565b610fcf84610eb2565b81016020851015610fde578190505b610ff2610fea85610eb2565b830182610f92565b50505b505050565b5f82821c905092915050565b5f6110155f1984600802610ffa565b1980831691505092915050565b5f61102d8383611006565b9150826002028217905092915050565b61104682610bb2565b67ffffffffffffffff81111561105f5761105e6108d9565b5b6110698254610e70565b611074828285610fb4565b5f60209050601f8311600181146110a5575f8415611093578287015190505b61109d8582611022565b865550611104565b601f1984166110b386610ea0565b5f5b828110156110da578489015182556001820191506020850194506020810190506110b5565b868310156110f757848901516110f3601f891682611006565b8355505b6001600288020188555050505b505050505050565b5f6060820190508181035f8301526111248186610bda565b905081810360208301526111388185610bda565b90506111476040830184610ab8565b949350505050565b7f496e76616c696420626f6f6b20494400000000000000000000000000000000005f82015250565b5f611183600f83610bbc565b915061118e8261114f565b602082019050919050565b5f6020820190508181035f8301526111b081611177565b9050919050565b7f4e487b71000000000000000000000000000000000000000000000000000000005f52603260045260245ffd5b7f426f6f6b206973206e6f7420617661696c61626c6520666f722072656e7400005f82015250565b5f611218601e83610bbc565b9150611223826111e4565b602082019050919050565b5f6020820190508181035f8301526112458161120c565b9050919050565b7f4e487b71000000000000000000000000000000000000000000000000000000005f52601160045260245ffd5b5f611283826109fd565b915061128e836109fd565b925082820261129c816109fd565b915082820484148315176112b3576112b261124c565b5b5092915050565b7f496e73756666696369656e742072656e74616c207061796d656e7400000000005f82015250565b5f6112ee601b83610bbc565b91506112f9826112ba565b602082019050919050565b5f6020820190508181035f83015261131b816112e2565b9050919050565b5f61132c826109fd565b9150611337836109fd565b925082820190508082111561134f5761134e61124c565b5b92915050565b5f61135f826109fd565b915061136a836109fd565b92508282039050818111156113825761138161124c565b5b9291505056fea2646970667358221220de6a1a75598c31f1608581e727f6c965c79b0ddcfa53ccb84f0d816b5f2a146664736f6c634300081a0033",
					"opcodes": "PUSH1 0x80 PUSH1 0x40 MSTORE CALLVALUE DUP1 ISZERO PUSH1 0xE JUMPI PUSH0 DUP1 REVERT JUMPDEST POP PUSH2 0x13BE DUP1 PUSH2 0x1C PUSH0 CODECOPY PUSH0 RETURN INVALID PUSH1 0x80 PUSH1 0x40 MSTORE PUSH1 0x4 CALLDATASIZE LT PUSH2 0x3E JUMPI PUSH0 CALLDATALOAD PUSH1 0xE0 SHR DUP1 PUSH4 0x4266224 EQ PUSH2 0x42 JUMPI DUP1 PUSH4 0x29646EE9 EQ PUSH2 0x7E JUMPI DUP1 PUSH4 0x68744046 EQ PUSH2 0xBA JUMPI DUP1 PUSH4 0xD43A4276 EQ PUSH2 0xFC JUMPI JUMPDEST PUSH0 DUP1 REVERT JUMPDEST CALLVALUE DUP1 ISZERO PUSH2 0x4D JUMPI PUSH0 DUP1 REVERT JUMPDEST POP PUSH2 0x68 PUSH1 0x4 DUP1 CALLDATASIZE SUB DUP2 ADD SWAP1 PUSH2 0x63 SWAP2 SWAP1 PUSH2 0xA30 JUMP JUMPDEST PUSH2 0x118 JUMP JUMPDEST PUSH1 0x40 MLOAD PUSH2 0x75 SWAP2 SWAP1 PUSH2 0xAC7 JUMP JUMPDEST PUSH1 0x40 MLOAD DUP1 SWAP2 SUB SWAP1 RETURN JUMPDEST CALLVALUE DUP1 ISZERO PUSH2 0x89 JUMPI PUSH0 DUP1 REVERT JUMPDEST POP PUSH2 0xA4 PUSH1 0x4 DUP1 CALLDATASIZE SUB DUP2 ADD SWAP1 PUSH2 0x9F SWAP2 SWAP1 PUSH2 0xB3A JUMP JUMPDEST PUSH2 0x421 JUMP JUMPDEST PUSH1 0x40 MLOAD PUSH2 0xB1 SWAP2 SWAP1 PUSH2 0xAC7 JUMP JUMPDEST PUSH1 0x40 MLOAD DUP1 SWAP2 SUB SWAP1 RETURN JUMPDEST CALLVALUE DUP1 ISZERO PUSH2 0xC5 JUMPI PUSH0 DUP1 REVERT JUMPDEST POP PUSH2 0xE0 PUSH1 0x4 DUP1 CALLDATASIZE SUB DUP2 ADD SWAP1 PUSH2 0xDB SWAP2 SWAP1 PUSH2 0xB78 JUMP JUMPDEST PUSH2 0x44C JUMP JUMPDEST PUSH1 0x40 MLOAD PUSH2 0xF3 SWAP8 SWAP7 SWAP6 SWAP5 SWAP4 SWAP3 SWAP2 SWAP1 PUSH2 0xC2C JUMP JUMPDEST PUSH1 0x40 MLOAD DUP1 SWAP2 SUB SWAP1 RETURN JUMPDEST PUSH2 0x116 PUSH1 0x4 DUP1 CALLDATASIZE SUB DUP2 ADD SWAP1 PUSH2 0x111 SWAP2 SWAP1 PUSH2 0xCA7 JUMP JUMPDEST PUSH2 0x5EE JUMP JUMPDEST STOP JUMPDEST PUSH0 DUP1 DUP5 MLOAD GT PUSH2 0x15C JUMPI PUSH1 0x40 MLOAD PUSH32 0x8C379A000000000000000000000000000000000000000000000000000000000 DUP2 MSTORE PUSH1 0x4 ADD PUSH2 0x153 SWAP1 PUSH2 0xD2F JUMP JUMPDEST PUSH1 0x40 MLOAD DUP1 SWAP2 SUB SWAP1 REVERT JUMPDEST PUSH0 DUP4 MLOAD GT PUSH2 0x19F JUMPI PUSH1 0x40 MLOAD PUSH32 0x8C379A000000000000000000000000000000000000000000000000000000000 DUP2 MSTORE PUSH1 0x4 ADD PUSH2 0x196 SWAP1 PUSH2 0xD97 JUMP JUMPDEST PUSH1 0x40 MLOAD DUP1 SWAP2 SUB SWAP1 REVERT JUMPDEST PUSH0 DUP3 GT PUSH2 0x1E1 JUMPI PUSH1 0x40 MLOAD PUSH32 0x8C379A000000000000000000000000000000000000000000000000000000000 DUP2 MSTORE PUSH1 0x4 ADD PUSH2 0x1D8 SWAP1 PUSH2 0xE25 JUMP JUMPDEST PUSH1 0x40 MLOAD DUP1 SWAP2 SUB SWAP1 REVERT JUMPDEST PUSH0 PUSH1 0x40 MLOAD DUP1 PUSH1 0xE0 ADD PUSH1 0x40 MSTORE DUP1 CALLER PUSH20 0xFFFFFFFFFFFFFFFFFFFFFFFFFFFFFFFFFFFFFFFF AND DUP2 MSTORE PUSH1 0x20 ADD DUP7 DUP2 MSTORE PUSH1 0x20 ADD DUP6 DUP2 MSTORE PUSH1 0x20 ADD PUSH1 0x1 ISZERO ISZERO DUP2 MSTORE PUSH1 0x20 ADD DUP5 DUP2 MSTORE PUSH1 0x20 ADD PUSH0 PUSH20 0xFFFFFFFFFFFFFFFFFFFFFFFFFFFFFFFFFFFFFFFF AND DUP2 MSTORE PUSH1 0x20 ADD PUSH0 DUP2 MSTORE POP SWAP1 POP PUSH0 DUP1 DUP1 SLOAD SWAP1 POP SWAP1 POP PUSH0 DUP3 SWAP1 DUP1 PUSH1 0x1 DUP2 SLOAD ADD DUP1 DUP3 SSTORE DUP1 SWAP2 POP POP PUSH1 0x1 SWAP1 SUB SWAP1 PUSH0 MSTORE PUSH1 0x20 PUSH0 KECCAK256 SWAP1 PUSH1 0x7 MUL ADD PUSH0 SWAP1 SWAP2 SWAP1 SWAP2 SWAP1 SWAP2 POP PUSH0 DUP3 ADD MLOAD DUP2 PUSH0 ADD PUSH0 PUSH2 0x100 EXP DUP2 SLOAD DUP2 PUSH20 0xFFFFFFFFFFFFFFFFFFFFFFFFFFFFFFFFFFFFFFFF MUL NOT AND SWAP1 DUP4 PUSH20 0xFFFFFFFFFFFFFFFFFFFFFFFFFFFFFFFFFFFFFFFF AND MUL OR SWAP1 SSTORE POP PUSH1 0x20 DUP3 ADD MLOAD DUP2 PUSH1 0x1 ADD SWAP1 DUP2 PUSH2 0x2CF SWAP2 SWAP1 PUSH2 0x103D JUMP JUMPDEST POP PUSH1 0x40 DUP3 ADD MLOAD DUP2 PUSH1 0x2 ADD SWAP1 DUP2 PUSH2 0x2E5 SWAP2 SWAP1 PUSH2 0x103D JUMP JUMPDEST POP PUSH1 0x60 DUP3 ADD MLOAD DUP2 PUSH1 0x3 ADD PUSH0 PUSH2 0x100 EXP DUP2 SLOAD DUP2 PUSH1 0xFF MUL NOT AND SWAP1 DUP4 ISZERO ISZERO MUL OR SWAP1 SSTORE POP PUSH1 0x80 DUP3 ADD MLOAD DUP2 PUSH1 0x4 ADD SSTORE PUSH1 0xA0 DUP3 ADD MLOAD DUP2 PUSH1 0x5 ADD PUSH0 PUSH2 0x100 EXP DUP2 SLOAD DUP2 PUSH20 0xFFFFFFFFFFFFFFFFFFFFFFFFFFFFFFFFFFFFFFFF MUL NOT AND SWAP1 DUP4 PUSH20 0xFFFFFFFFFFFFFFFFFFFFFFFFFFFFFFFFFFFFFFFF AND MUL OR SWAP1 SSTORE POP PUSH1 0xC0 DUP3 ADD MLOAD DUP2 PUSH1 0x6 ADD SSTORE POP POP PUSH1 0x1 PUSH0 CALLER PUSH20 0xFFFFFFFFFFFFFFFFFFFFFFFFFFFFFFFFFFFFFFFF AND PUSH20 0xFFFFFFFFFFFFFFFFFFFFFFFFFFFFFFFFFFFFFFFF AND DUP2 MSTORE PUSH1 0x20 ADD SWAP1 DUP2 MSTORE PUSH1 0x20 ADD PUSH0 KECCAK256 DUP2 SWAP1 DUP1 PUSH1 0x1 DUP2 SLOAD ADD DUP1 DUP3 SSTORE DUP1 SWAP2 POP POP PUSH1 0x1 SWAP1 SUB SWAP1 PUSH0 MSTORE PUSH1 0x20 PUSH0 KECCAK256 ADD PUSH0 SWAP1 SWAP2 SWAP1 SWAP2 SWAP1 SWAP2 POP SSTORE CALLER PUSH20 0xFFFFFFFFFFFFFFFFFFFFFFFFFFFFFFFFFFFFFFFF AND DUP2 PUSH32 0xCE4DF713F464F071C2A16D0EED871906DB63A39CD7B7353CB4102FF1343667F DUP9 DUP9 DUP9 PUSH1 0x40 MLOAD PUSH2 0x40D SWAP4 SWAP3 SWAP2 SWAP1 PUSH2 0x110C JUMP JUMPDEST PUSH1 0x40 MLOAD DUP1 SWAP2 SUB SWAP1 LOG3 DUP1 SWAP3 POP POP POP SWAP4 SWAP3 POP POP POP JUMP JUMPDEST PUSH1 0x1 PUSH1 0x20 MSTORE DUP2 PUSH0 MSTORE PUSH1 0x40 PUSH0 KECCAK256 DUP2 DUP2 SLOAD DUP2 LT PUSH2 0x43A JUMPI PUSH0 DUP1 REVERT JUMPDEST SWAP1 PUSH0 MSTORE PUSH1 0x20 PUSH0 KECCAK256 ADD PUSH0 SWAP2 POP SWAP2 POP POP SLOAD DUP2 JUMP JUMPDEST PUSH0 DUP2 DUP2 SLOAD DUP2 LT PUSH2 0x45A JUMPI PUSH0 DUP1 REVERT JUMPDEST SWAP1 PUSH0 MSTORE PUSH1 0x20 PUSH0 KECCAK256 SWAP1 PUSH1 0x7 MUL ADD PUSH0 SWAP2 POP SWAP1 POP DUP1 PUSH0 ADD PUSH0 SWAP1 SLOAD SWAP1 PUSH2 0x100 EXP SWAP1 DIV PUSH20 0xFFFFFFFFFFFFFFFFFFFFFFFFFFFFFFFFFFFFFFFF AND SWAP1 DUP1 PUSH1 0x1 ADD DUP1 SLOAD PUSH2 0x49E SWAP1 PUSH2 0xE70 JUMP JUMPDEST DUP1 PUSH1 0x1F ADD PUSH1 0x20 DUP1 SWAP2 DIV MUL PUSH1 0x20 ADD PUSH1 0x40 MLOAD SWAP1 DUP2 ADD PUSH1 0x40 MSTORE DUP1 SWAP3 SWAP2 SWAP1 DUP2 DUP2 MSTORE PUSH1 0x20 ADD DUP3 DUP1 SLOAD PUSH2 0x4CA SWAP1 PUSH2 0xE70 JUMP JUMPDEST DUP1 ISZERO PUSH2 0x515 JUMPI DUP1 PUSH1 0x1F LT PUSH2 0x4EC JUMPI PUSH2 0x100 DUP1 DUP4 SLOAD DIV MUL DUP4 MSTORE SWAP2 PUSH1 0x20 ADD SWAP2 PUSH2 0x515 JUMP JUMPDEST DUP3 ADD SWAP2 SWAP1 PUSH0 MSTORE PUSH1 0x20 PUSH0 KECCAK256 SWAP1 JUMPDEST DUP2 SLOAD DUP2 MSTORE SWAP1 PUSH1 0x1 ADD SWAP1 PUSH1 0x20 ADD DUP1 DUP4 GT PUSH2 0x4F8 JUMPI DUP3 SWAP1 SUB PUSH1 0x1F AND DUP3 ADD SWAP2 JUMPDEST POP POP POP POP POP SWAP1 DUP1 PUSH1 0x2 ADD DUP1 SLOAD PUSH2 0x52A SWAP1 PUSH2 0xE70 JUMP JUMPDEST DUP1 PUSH1 0x1F ADD PUSH1 0x20 DUP1 SWAP2 DIV MUL PUSH1 0x20 ADD PUSH1 0x40 MLOAD SWAP1 DUP2 ADD PUSH1 0x40 MSTORE DUP1 SWAP3 SWAP2 SWAP1 DUP2 DUP2 MSTORE PUSH1 0x20 ADD DUP3 DUP1 SLOAD PUSH2 0x556 SWAP1 PUSH2 0xE70 JUMP JUMPDEST DUP1 ISZERO PUSH2 0x5A1 JUMPI DUP1 PUSH1 0x1F LT PUSH2 0x578 JUMPI PUSH2 0x100 DUP1 DUP4 SLOAD DIV MUL DUP4 MSTORE SWAP2 PUSH1 0x20 ADD SWAP2 PUSH2 0x5A1 JUMP JUMPDEST DUP3 ADD SWAP2 SWAP1 PUSH0 MSTORE PUSH1 0x20 PUSH0 KECCAK256 SWAP1 JUMPDEST DUP2 SLOAD DUP2 MSTORE SWAP1 PUSH1 0x1 ADD SWAP1 PUSH1 0x20 ADD DUP1 DUP4 GT PUSH2 0x584 JUMPI DUP3 SWAP1 SUB PUSH1 0x1F AND DUP3 ADD SWAP2 JUMPDEST POP POP POP POP POP SWAP1 DUP1 PUSH1 0x3 ADD PUSH0 SWAP1 SLOAD SWAP1 PUSH2 0x100 EXP SWAP1 DIV PUSH1 0xFF AND SWAP1 DUP1 PUSH1 0x4 ADD SLOAD SWAP1 DUP1 PUSH1 0x5 ADD PUSH0 SWAP1 SLOAD SWAP1 PUSH2 0x100 EXP SWAP1 DIV PUSH20 0xFFFFFFFFFFFFFFFFFFFFFFFFFFFFFFFFFFFFFFFF AND SWAP1 DUP1 PUSH1 0x6 ADD SLOAD SWAP1 POP DUP8 JUMP JUMPDEST PUSH0 DUP1 SLOAD SWAP1 POP DUP3 LT PUSH2 0x634 JUMPI PUSH1 0x40 MLOAD PUSH32 0x8C379A000000000000000000000000000000000000000000000000000000000 DUP2 MSTORE PUSH1 0x4 ADD PUSH2 0x62B SWAP1 PUSH2 0x1199 JUMP JUMPDEST PUSH1 0x40 MLOAD DUP1 SWAP2 SUB SWAP1 REVERT JUMPDEST PUSH0 DUP3 DUP2 SLOAD DUP2 LT PUSH2 0x647 JUMPI PUSH2 0x646 PUSH2 0x11B7 JUMP JUMPDEST JUMPDEST SWAP1 PUSH0 MSTORE PUSH1 0x20 PUSH0 KECCAK256 SWAP1 PUSH1 0x7 MUL ADD PUSH1 0x3 ADD PUSH0 SWAP1 SLOAD SWAP1 PUSH2 0x100 EXP SWAP1 DIV PUSH1 0xFF AND PUSH2 0x6A2 JUMPI PUSH1 0x40 MLOAD PUSH32 0x8C379A000000000000000000000000000000000000000000000000000000000 DUP2 MSTORE PUSH1 0x4 ADD PUSH2 0x699 SWAP1 PUSH2 0x122E JUMP JUMPDEST PUSH1 0x40 MLOAD DUP1 SWAP2 SUB SWAP1 REVERT JUMPDEST PUSH0 DUP1 DUP4 DUP2 SLOAD DUP2 LT PUSH2 0x6B6 JUMPI PUSH2 0x6B5 PUSH2 0x11B7 JUMP JUMPDEST JUMPDEST SWAP1 PUSH0 MSTORE PUSH1 0x20 PUSH0 KECCAK256 SWAP1 PUSH1 0x7 MUL ADD SWAP1 POP PUSH0 DUP3 DUP3 PUSH1 0x4 ADD SLOAD PUSH2 0x6D5 SWAP2 SWAP1 PUSH2 0x1279 JUMP JUMPDEST SWAP1 POP DUP1 CALLVALUE LT ISZERO PUSH2 0x71A JUMPI PUSH1 0x40 MLOAD PUSH32 0x8C379A000000000000000000000000000000000000000000000000000000000 DUP2 MSTORE PUSH1 0x4 ADD PUSH2 0x711 SWAP1 PUSH2 0x1304 JUMP JUMPDEST PUSH1 0x40 MLOAD DUP1 SWAP2 SUB SWAP1 REVERT JUMPDEST PUSH0 DUP3 PUSH1 0x3 ADD PUSH0 PUSH2 0x100 EXP DUP2 SLOAD DUP2 PUSH1 0xFF MUL NOT AND SWAP1 DUP4 ISZERO ISZERO MUL OR SWAP1 SSTORE POP CALLER DUP3 PUSH1 0x5 ADD PUSH0 PUSH2 0x100 EXP DUP2 SLOAD DUP2 PUSH20 0xFFFFFFFFFFFFFFFFFFFFFFFFFFFFFFFFFFFFFFFF MUL NOT AND SWAP1 DUP4 PUSH20 0xFFFFFFFFFFFFFFFFFFFFFFFFFFFFFFFFFFFFFFFF AND MUL OR SWAP1 SSTORE POP PUSH3 0x15180 DUP4 PUSH2 0x786 SWAP2 SWAP1 PUSH2 0x1279 JUMP JUMPDEST TIMESTAMP PUSH2 0x791 SWAP2 SWAP1 PUSH2 0x1322 JUMP JUMPDEST DUP3 PUSH1 0x6 ADD DUP2 SWAP1 SSTORE POP DUP2 PUSH0 ADD PUSH0 SWAP1 SLOAD SWAP1 PUSH2 0x100 EXP SWAP1 DIV PUSH20 0xFFFFFFFFFFFFFFFFFFFFFFFFFFFFFFFFFFFFFFFF AND PUSH20 0xFFFFFFFFFFFFFFFFFFFFFFFFFFFFFFFFFFFFFFFF AND PUSH2 0x8FC DUP3 SWAP1 DUP2 ISZERO MUL SWAP1 PUSH1 0x40 MLOAD PUSH0 PUSH1 0x40 MLOAD DUP1 DUP4 SUB DUP2 DUP6 DUP9 DUP9 CALL SWAP4 POP POP POP POP ISZERO DUP1 ISZERO PUSH2 0x7FE JUMPI RETURNDATASIZE PUSH0 DUP1 RETURNDATACOPY RETURNDATASIZE PUSH0 REVERT JUMPDEST POP DUP1 CALLVALUE GT ISZERO PUSH2 0x857 JUMPI CALLER PUSH20 0xFFFFFFFFFFFFFFFFFFFFFFFFFFFFFFFFFFFFFFFF AND PUSH2 0x8FC DUP3 CALLVALUE PUSH2 0x82D SWAP2 SWAP1 PUSH2 0x1355 JUMP JUMPDEST SWAP1 DUP2 ISZERO MUL SWAP1 PUSH1 0x40 MLOAD PUSH0 PUSH1 0x40 MLOAD DUP1 DUP4 SUB DUP2 DUP6 DUP9 DUP9 CALL SWAP4 POP POP POP POP ISZERO DUP1 ISZERO PUSH2 0x855 JUMPI RETURNDATASIZE PUSH0 DUP1 RETURNDATACOPY RETURNDATASIZE PUSH0 REVERT JUMPDEST POP JUMPDEST CALLER PUSH20 0xFFFFFFFFFFFFFFFFFFFFFFFFFFFFFFFFFFFFFFFF AND DUP5 PUSH32 0x43BE9CCE6F4D2C3B94FC5D534505C6370EF4E2B927078AD67BB7F533BAD9DFCC DUP5 PUSH1 0x6 ADD SLOAD PUSH1 0x40 MLOAD PUSH2 0x8A2 SWAP2 SWAP1 PUSH2 0xAC7 JUMP JUMPDEST PUSH1 0x40 MLOAD DUP1 SWAP2 SUB SWAP1 LOG3 POP POP POP POP JUMP JUMPDEST PUSH0 PUSH1 0x40 MLOAD SWAP1 POP SWAP1 JUMP JUMPDEST PUSH0 DUP1 REVERT JUMPDEST PUSH0 DUP1 REVERT JUMPDEST PUSH0 DUP1 REVERT JUMPDEST PUSH0 DUP1 REVERT JUMPDEST PUSH0 PUSH1 0x1F NOT PUSH1 0x1F DUP4 ADD AND SWAP1 POP SWAP2 SWAP1 POP JUMP JUMPDEST PUSH32 0x4E487B7100000000000000000000000000000000000000000000000000000000 PUSH0 MSTORE PUSH1 0x41 PUSH1 0x4 MSTORE PUSH1 0x24 PUSH0 REVERT JUMPDEST PUSH2 0x90F DUP3 PUSH2 0x8C9 JUMP JUMPDEST DUP2 ADD DUP2 DUP2 LT PUSH8 0xFFFFFFFFFFFFFFFF DUP3 GT OR ISZERO PUSH2 0x92E JUMPI PUSH2 0x92D PUSH2 0x8D9 JUMP JUMPDEST JUMPDEST DUP1 PUSH1 0x40 MSTORE POP POP POP JUMP JUMPDEST PUSH0 PUSH2 0x940 PUSH2 0x8B0 JUMP JUMPDEST SWAP1 POP PUSH2 0x94C DUP3 DUP3 PUSH2 0x906 JUMP JUMPDEST SWAP2 SWAP1 POP JUMP JUMPDEST PUSH0 PUSH8 0xFFFFFFFFFFFFFFFF DUP3 GT ISZERO PUSH2 0x96B JUMPI PUSH2 0x96A PUSH2 0x8D9 JUMP JUMPDEST JUMPDEST PUSH2 0x974 DUP3 PUSH2 0x8C9 JUMP JUMPDEST SWAP1 POP PUSH1 0x20 DUP2 ADD SWAP1 POP SWAP2 SWAP1 POP JUMP JUMPDEST DUP3 DUP2 DUP4 CALLDATACOPY PUSH0 DUP4 DUP4 ADD MSTORE POP POP POP JUMP JUMPDEST PUSH0 PUSH2 0x9A1 PUSH2 0x99C DUP5 PUSH2 0x951 JUMP JUMPDEST PUSH2 0x937 JUMP JUMPDEST SWAP1 POP DUP3 DUP2 MSTORE PUSH1 0x20 DUP2 ADD DUP5 DUP5 DUP5 ADD GT ISZERO PUSH2 0x9BD JUMPI PUSH2 0x9BC PUSH2 0x8C5 JUMP JUMPDEST JUMPDEST PUSH2 0x9C8 DUP5 DUP3 DUP6 PUSH2 0x981 JUMP JUMPDEST POP SWAP4 SWAP3 POP POP POP JUMP JUMPDEST PUSH0 DUP3 PUSH1 0x1F DUP4 ADD SLT PUSH2 0x9E4 JUMPI PUSH2 0x9E3 PUSH2 0x8C1 JUMP JUMPDEST JUMPDEST DUP2 CALLDATALOAD PUSH2 0x9F4 DUP5 DUP3 PUSH1 0x20 DUP7 ADD PUSH2 0x98F JUMP JUMPDEST SWAP2 POP POP SWAP3 SWAP2 POP POP JUMP JUMPDEST PUSH0 DUP2 SWAP1 POP SWAP2 SWAP1 POP JUMP JUMPDEST PUSH2 0xA0F DUP2 PUSH2 0x9FD JUMP JUMPDEST DUP2 EQ PUSH2 0xA19 JUMPI PUSH0 DUP1 REVERT JUMPDEST POP JUMP JUMPDEST PUSH0 DUP2 CALLDATALOAD SWAP1 POP PUSH2 0xA2A DUP2 PUSH2 0xA06 JUMP JUMPDEST SWAP3 SWAP2 POP POP JUMP JUMPDEST PUSH0 DUP1 PUSH0 PUSH1 0x60 DUP5 DUP7 SUB SLT ISZERO PUSH2 0xA47 JUMPI PUSH2 0xA46 PUSH2 0x8B9 JUMP JUMPDEST JUMPDEST PUSH0 DUP5 ADD CALLDATALOAD PUSH8 0xFFFFFFFFFFFFFFFF DUP2 GT ISZERO PUSH2 0xA64 JUMPI PUSH2 0xA63 PUSH2 0x8BD JUMP JUMPDEST JUMPDEST PUSH2 0xA70 DUP7 DUP3 DUP8 ADD PUSH2 0x9D0 JUMP JUMPDEST SWAP4 POP POP PUSH1 0x20 DUP5 ADD CALLDATALOAD PUSH8 0xFFFFFFFFFFFFFFFF DUP2 GT ISZERO PUSH2 0xA91 JUMPI PUSH2 0xA90 PUSH2 0x8BD JUMP JUMPDEST JUMPDEST PUSH2 0xA9D DUP7 DUP3 DUP8 ADD PUSH2 0x9D0 JUMP JUMPDEST SWAP3 POP POP PUSH1 0x40 PUSH2 0xAAE DUP7 DUP3 DUP8 ADD PUSH2 0xA1C JUMP JUMPDEST SWAP2 POP POP SWAP3 POP SWAP3 POP SWAP3 JUMP JUMPDEST PUSH2 0xAC1 DUP2 PUSH2 0x9FD JUMP JUMPDEST DUP3 MSTORE POP POP JUMP JUMPDEST PUSH0 PUSH1 0x20 DUP3 ADD SWAP1 POP PUSH2 0xADA PUSH0 DUP4 ADD DUP5 PUSH2 0xAB8 JUMP JUMPDEST SWAP3 SWAP2 POP POP JUMP JUMPDEST PUSH0 PUSH20 0xFFFFFFFFFFFFFFFFFFFFFFFFFFFFFFFFFFFFFFFF DUP3 AND SWAP1 POP SWAP2 SWAP1 POP JUMP JUMPDEST PUSH0 PUSH2 0xB09 DUP3 PUSH2 0xAE0 JUMP JUMPDEST SWAP1 POP SWAP2 SWAP1 POP JUMP JUMPDEST PUSH2 0xB19 DUP2 PUSH2 0xAFF JUMP JUMPDEST DUP2 EQ PUSH2 0xB23 JUMPI PUSH0 DUP1 REVERT JUMPDEST POP JUMP JUMPDEST PUSH0 DUP2 CALLDATALOAD SWAP1 POP PUSH2 0xB34 DUP2 PUSH2 0xB10 JUMP JUMPDEST SWAP3 SWAP2 POP POP JUMP JUMPDEST PUSH0 DUP1 PUSH1 0x40 DUP4 DUP6 SUB SLT ISZERO PUSH2 0xB50 JUMPI PUSH2 0xB4F PUSH2 0x8B9 JUMP JUMPDEST JUMPDEST PUSH0 PUSH2 0xB5D DUP6 DUP3 DUP7 ADD PUSH2 0xB26 JUMP JUMPDEST SWAP3 POP POP PUSH1 0x20 PUSH2 0xB6E DUP6 DUP3 DUP7 ADD PUSH2 0xA1C JUMP JUMPDEST SWAP2 POP POP SWAP3 POP SWAP3 SWAP1 POP JUMP JUMPDEST PUSH0 PUSH1 0x20 DUP3 DUP5 SUB SLT ISZERO PUSH2 0xB8D JUMPI PUSH2 0xB8C PUSH2 0x8B9 JUMP JUMPDEST JUMPDEST PUSH0 PUSH2 0xB9A DUP5 DUP3 DUP6 ADD PUSH2 0xA1C JUMP JUMPDEST SWAP2 POP POP SWAP3 SWAP2 POP POP JUMP JUMPDEST PUSH2 0xBAC DUP2 PUSH2 0xAFF JUMP JUMPDEST DUP3 MSTORE POP POP JUMP JUMPDEST PUSH0 DUP2 MLOAD SWAP1 POP SWAP2 SWAP1 POP JUMP JUMPDEST PUSH0 DUP3 DUP3 MSTORE PUSH1 0x20 DUP3 ADD SWAP1 POP SWAP3 SWAP2 POP POP JUMP JUMPDEST DUP3 DUP2 DUP4 MCOPY PUSH0 DUP4 DUP4 ADD MSTORE POP POP POP JUMP JUMPDEST PUSH0 PUSH2 0xBE4 DUP3 PUSH2 0xBB2 JUMP JUMPDEST PUSH2 0xBEE DUP2 DUP6 PUSH2 0xBBC JUMP JUMPDEST SWAP4 POP PUSH2 0xBFE DUP2 DUP6 PUSH1 0x20 DUP7 ADD PUSH2 0xBCC JUMP JUMPDEST PUSH2 0xC07 DUP2 PUSH2 0x8C9 JUMP JUMPDEST DUP5 ADD SWAP2 POP POP SWAP3 SWAP2 POP POP JUMP JUMPDEST PUSH0 DUP2 ISZERO ISZERO SWAP1 POP SWAP2 SWAP1 POP JUMP JUMPDEST PUSH2 0xC26 DUP2 PUSH2 0xC12 JUMP JUMPDEST DUP3 MSTORE POP POP JUMP JUMPDEST PUSH0 PUSH1 0xE0 DUP3 ADD SWAP1 POP PUSH2 0xC3F PUSH0 DUP4 ADD DUP11 PUSH2 0xBA3 JUMP JUMPDEST DUP2 DUP2 SUB PUSH1 0x20 DUP4 ADD MSTORE PUSH2 0xC51 DUP2 DUP10 PUSH2 0xBDA JUMP JUMPDEST SWAP1 POP DUP2 DUP2 SUB PUSH1 0x40 DUP4 ADD MSTORE PUSH2 0xC65 DUP2 DUP9 PUSH2 0xBDA JUMP JUMPDEST SWAP1 POP PUSH2 0xC74 PUSH1 0x60 DUP4 ADD DUP8 PUSH2 0xC1D JUMP JUMPDEST PUSH2 0xC81 PUSH1 0x80 DUP4 ADD DUP7 PUSH2 0xAB8 JUMP JUMPDEST PUSH2 0xC8E PUSH1 0xA0 DUP4 ADD DUP6 PUSH2 0xBA3 JUMP JUMPDEST PUSH2 0xC9B PUSH1 0xC0 DUP4 ADD DUP5 PUSH2 0xAB8 JUMP JUMPDEST SWAP9 SWAP8 POP POP POP POP POP POP POP POP JUMP JUMPDEST PUSH0 DUP1 PUSH1 0x40 DUP4 DUP6 SUB SLT ISZERO PUSH2 0xCBD JUMPI PUSH2 0xCBC PUSH2 0x8B9 JUMP JUMPDEST JUMPDEST PUSH0 PUSH2 0xCCA DUP6 DUP3 DUP7 ADD PUSH2 0xA1C JUMP JUMPDEST SWAP3 POP POP PUSH1 0x20 PUSH2 0xCDB DUP6 DUP3 DUP7 ADD PUSH2 0xA1C JUMP JUMPDEST SWAP2 POP POP SWAP3 POP SWAP3 SWAP1 POP JUMP JUMPDEST PUSH32 0x5469746C652063616E6E6F7420626520656D7074790000000000000000000000 PUSH0 DUP3 ADD MSTORE POP JUMP JUMPDEST PUSH0 PUSH2 0xD19 PUSH1 0x15 DUP4 PUSH2 0xBBC JUMP JUMPDEST SWAP2 POP PUSH2 0xD24 DUP3 PUSH2 0xCE5 JUMP JUMPDEST PUSH1 0x20 DUP3 ADD SWAP1 POP SWAP2 SWAP1 POP JUMP JUMPDEST PUSH0 PUSH1 0x20 DUP3 ADD SWAP1 POP DUP2 DUP2 SUB PUSH0 DUP4 ADD MSTORE PUSH2 0xD46 DUP2 PUSH2 0xD0D JUMP JUMPDEST SWAP1 POP SWAP2 SWAP1 POP JUMP JUMPDEST PUSH32 0x417574686F722063616E6E6F7420626520656D70747900000000000000000000 PUSH0 DUP3 ADD MSTORE POP JUMP JUMPDEST PUSH0 PUSH2 0xD81 PUSH1 0x16 DUP4 PUSH2 0xBBC JUMP JUMPDEST SWAP2 POP PUSH2 0xD8C DUP3 PUSH2 0xD4D JUMP JUMPDEST PUSH1 0x20 DUP3 ADD SWAP1 POP SWAP2 SWAP1 POP JUMP JUMPDEST PUSH0 PUSH1 0x20 DUP3 ADD SWAP1 POP DUP2 DUP2 SUB PUSH0 DUP4 ADD MSTORE PUSH2 0xDAE DUP2 PUSH2 0xD75 JUMP JUMPDEST SWAP1 POP SWAP2 SWAP1 POP JUMP JUMPDEST PUSH32 0x52656E74616C207072696365206D757374206265206772656174657220746861 PUSH0 DUP3 ADD MSTORE PUSH32 0x6E207A65726F0000000000000000000000000000000000000000000000000000 PUSH1 0x20 DUP3 ADD MSTORE POP JUMP JUMPDEST PUSH0 PUSH2 0xE0F PUSH1 0x26 DUP4 PUSH2 0xBBC JUMP JUMPDEST SWAP2 POP PUSH2 0xE1A DUP3 PUSH2 0xDB5 JUMP JUMPDEST PUSH1 0x40 DUP3 ADD SWAP1 POP SWAP2 SWAP1 POP JUMP JUMPDEST PUSH0 PUSH1 0x20 DUP3 ADD SWAP1 POP DUP2 DUP2 SUB PUSH0 DUP4 ADD MSTORE PUSH2 0xE3C DUP2 PUSH2 0xE03 JUMP JUMPDEST SWAP1 POP SWAP2 SWAP1 POP JUMP JUMPDEST PUSH32 0x4E487B7100000000000000000000000000000000000000000000000000000000 PUSH0 MSTORE PUSH1 0x22 PUSH1 0x4 MSTORE PUSH1 0x24 PUSH0 REVERT JUMPDEST PUSH0 PUSH1 0x2 DUP3 DIV SWAP1 POP PUSH1 0x1 DUP3 AND DUP1 PUSH2 0xE87 JUMPI PUSH1 0x7F DUP3 AND SWAP2 POP JUMPDEST PUSH1 0x20 DUP3 LT DUP2 SUB PUSH2 0xE9A JUMPI PUSH2 0xE99 PUSH2 0xE43 JUMP JUMPDEST JUMPDEST POP SWAP2 SWAP1 POP JUMP JUMPDEST PUSH0 DUP2 SWAP1 POP DUP2 PUSH0 MSTORE PUSH1 0x20 PUSH0 KECCAK256 SWAP1 POP SWAP2 SWAP1 POP JUMP JUMPDEST PUSH0 PUSH1 0x20 PUSH1 0x1F DUP4 ADD DIV SWAP1 POP SWAP2 SWAP1 POP JUMP JUMPDEST PUSH0 DUP3 DUP3 SHL SWAP1 POP SWAP3 SWAP2 POP POP JUMP JUMPDEST PUSH0 PUSH1 0x8 DUP4 MUL PUSH2 0xEFC PUSH32 0xFFFFFFFFFFFFFFFFFFFFFFFFFFFFFFFFFFFFFFFFFFFFFFFFFFFFFFFFFFFFFFFF DUP3 PUSH2 0xEC1 JUMP JUMPDEST PUSH2 0xF06 DUP7 DUP4 PUSH2 0xEC1 JUMP JUMPDEST SWAP6 POP DUP1 NOT DUP5 AND SWAP4 POP DUP1 DUP7 AND DUP5 OR SWAP3 POP POP POP SWAP4 SWAP3 POP POP POP JUMP JUMPDEST PUSH0 DUP2 SWAP1 POP SWAP2 SWAP1 POP JUMP JUMPDEST PUSH0 PUSH2 0xF41 PUSH2 0xF3C PUSH2 0xF37 DUP5 PUSH2 0x9FD JUMP JUMPDEST PUSH2 0xF1E JUMP JUMPDEST PUSH2 0x9FD JUMP JUMPDEST SWAP1 POP SWAP2 SWAP1 POP JUMP JUMPDEST PUSH0 DUP2 SWAP1 POP SWAP2 SWAP1 POP JUMP JUMPDEST PUSH2 0xF5A DUP4 PUSH2 0xF27 JUMP JUMPDEST PUSH2 0xF6E PUSH2 0xF66 DUP3 PUSH2 0xF48 JUMP JUMPDEST DUP5 DUP5 SLOAD PUSH2 0xECD JUMP JUMPDEST DUP3 SSTORE POP POP POP POP JUMP JUMPDEST PUSH0 SWAP1 JUMP JUMPDEST PUSH2 0xF82 PUSH2 0xF76 JUMP JUMPDEST PUSH2 0xF8D DUP2 DUP5 DUP5 PUSH2 0xF51 JUMP JUMPDEST POP POP POP JUMP JUMPDEST JUMPDEST DUP2 DUP2 LT ISZERO PUSH2 0xFB0 JUMPI PUSH2 0xFA5 PUSH0 DUP3 PUSH2 0xF7A JUMP JUMPDEST PUSH1 0x1 DUP2 ADD SWAP1 POP PUSH2 0xF93 JUMP JUMPDEST POP POP JUMP JUMPDEST PUSH1 0x1F DUP3 GT ISZERO PUSH2 0xFF5 JUMPI PUSH2 0xFC6 DUP2 PUSH2 0xEA0 JUMP JUMPDEST PUSH2 0xFCF DUP5 PUSH2 0xEB2 JUMP JUMPDEST DUP2 ADD PUSH1 0x20 DUP6 LT ISZERO PUSH2 0xFDE JUMPI DUP2 SWAP1 POP JUMPDEST PUSH2 0xFF2 PUSH2 0xFEA DUP6 PUSH2 0xEB2 JUMP JUMPDEST DUP4 ADD DUP3 PUSH2 0xF92 JUMP JUMPDEST POP POP JUMPDEST POP POP POP JUMP JUMPDEST PUSH0 DUP3 DUP3 SHR SWAP1 POP SWAP3 SWAP2 POP POP JUMP JUMPDEST PUSH0 PUSH2 0x1015 PUSH0 NOT DUP5 PUSH1 0x8 MUL PUSH2 0xFFA JUMP JUMPDEST NOT DUP1 DUP4 AND SWAP2 POP POP SWAP3 SWAP2 POP POP JUMP JUMPDEST PUSH0 PUSH2 0x102D DUP4 DUP4 PUSH2 0x1006 JUMP JUMPDEST SWAP2 POP DUP3 PUSH1 0x2 MUL DUP3 OR SWAP1 POP SWAP3 SWAP2 POP POP JUMP JUMPDEST PUSH2 0x1046 DUP3 PUSH2 0xBB2 JUMP JUMPDEST PUSH8 0xFFFFFFFFFFFFFFFF DUP2 GT ISZERO PUSH2 0x105F JUMPI PUSH2 0x105E PUSH2 0x8D9 JUMP JUMPDEST JUMPDEST PUSH2 0x1069 DUP3 SLOAD PUSH2 0xE70 JUMP JUMPDEST PUSH2 0x1074 DUP3 DUP3 DUP6 PUSH2 0xFB4 JUMP JUMPDEST PUSH0 PUSH1 0x20 SWAP1 POP PUSH1 0x1F DUP4 GT PUSH1 0x1 DUP2 EQ PUSH2 0x10A5 JUMPI PUSH0 DUP5 ISZERO PUSH2 0x1093 JUMPI DUP3 DUP8 ADD MLOAD SWAP1 POP JUMPDEST PUSH2 0x109D DUP6 DUP3 PUSH2 0x1022 JUMP JUMPDEST DUP7 SSTORE POP PUSH2 0x1104 JUMP JUMPDEST PUSH1 0x1F NOT DUP5 AND PUSH2 0x10B3 DUP7 PUSH2 0xEA0 JUMP JUMPDEST PUSH0 JUMPDEST DUP3 DUP2 LT ISZERO PUSH2 0x10DA JUMPI DUP5 DUP10 ADD MLOAD DUP3 SSTORE PUSH1 0x1 DUP3 ADD SWAP2 POP PUSH1 0x20 DUP6 ADD SWAP5 POP PUSH1 0x20 DUP2 ADD SWAP1 POP PUSH2 0x10B5 JUMP JUMPDEST DUP7 DUP4 LT ISZERO PUSH2 0x10F7 JUMPI DUP5 DUP10 ADD MLOAD PUSH2 0x10F3 PUSH1 0x1F DUP10 AND DUP3 PUSH2 0x1006 JUMP JUMPDEST DUP4 SSTORE POP JUMPDEST PUSH1 0x1 PUSH1 0x2 DUP9 MUL ADD DUP9 SSTORE POP POP POP JUMPDEST POP POP POP POP POP POP JUMP JUMPDEST PUSH0 PUSH1 0x60 DUP3 ADD SWAP1 POP DUP2 DUP2 SUB PUSH0 DUP4 ADD MSTORE PUSH2 0x1124 DUP2 DUP7 PUSH2 0xBDA JUMP JUMPDEST SWAP1 POP DUP2 DUP2 SUB PUSH1 0x20 DUP4 ADD MSTORE PUSH2 0x1138 DUP2 DUP6 PUSH2 0xBDA JUMP JUMPDEST SWAP1 POP PUSH2 0x1147 PUSH1 0x40 DUP4 ADD DUP5 PUSH2 0xAB8 JUMP JUMPDEST SWAP5 SWAP4 POP POP POP POP JUMP JUMPDEST PUSH32 0x496E76616C696420626F6F6B2049440000000000000000000000000000000000 PUSH0 DUP3 ADD MSTORE POP JUMP JUMPDEST PUSH0 PUSH2 0x1183 PUSH1 0xF DUP4 PUSH2 0xBBC JUMP JUMPDEST SWAP2 POP PUSH2 0x118E DUP3 PUSH2 0x114F JUMP JUMPDEST PUSH1 0x20 DUP3 ADD SWAP1 POP SWAP2 SWAP1 POP JUMP JUMPDEST PUSH0 PUSH1 0x20 DUP3 ADD SWAP1 POP DUP2 DUP2 SUB PUSH0 DUP4 ADD MSTORE PUSH2 0x11B0 DUP2 PUSH2 0x1177 JUMP JUMPDEST SWAP1 POP SWAP2 SWAP1 POP JUMP JUMPDEST PUSH32 0x4E487B7100000000000000000000000000000000000000000000000000000000 PUSH0 MSTORE PUSH1 0x32 PUSH1 0x4 MSTORE PUSH1 0x24 PUSH0 REVERT JUMPDEST PUSH32 0x426F6F6B206973206E6F7420617661696C61626C6520666F722072656E740000 PUSH0 DUP3 ADD MSTORE POP JUMP JUMPDEST PUSH0 PUSH2 0x1218 PUSH1 0x1E DUP4 PUSH2 0xBBC JUMP JUMPDEST SWAP2 POP PUSH2 0x1223 DUP3 PUSH2 0x11E4 JUMP JUMPDEST PUSH1 0x20 DUP3 ADD SWAP1 POP SWAP2 SWAP1 POP JUMP JUMPDEST PUSH0 PUSH1 0x20 DUP3 ADD SWAP1 POP DUP2 DUP2 SUB PUSH0 DUP4 ADD MSTORE PUSH2 0x1245 DUP2 PUSH2 0x120C JUMP JUMPDEST SWAP1 POP SWAP2 SWAP1 POP JUMP JUMPDEST PUSH32 0x4E487B7100000000000000000000000000000000000000000000000000000000 PUSH0 MSTORE PUSH1 0x11 PUSH1 0x4 MSTORE PUSH1 0x24 PUSH0 REVERT JUMPDEST PUSH0 PUSH2 0x1283 DUP3 PUSH2 0x9FD JUMP JUMPDEST SWAP2 POP PUSH2 0x128E DUP4 PUSH2 0x9FD JUMP JUMPDEST SWAP3 POP DUP3 DUP3 MUL PUSH2 0x129C DUP2 PUSH2 0x9FD JUMP JUMPDEST SWAP2 POP DUP3 DUP3 DIV DUP5 EQ DUP4 ISZERO OR PUSH2 0x12B3 JUMPI PUSH2 0x12B2 PUSH2 0x124C JUMP JUMPDEST JUMPDEST POP SWAP3 SWAP2 POP POP JUMP JUMPDEST PUSH32 0x496E73756666696369656E742072656E74616C207061796D656E740000000000 PUSH0 DUP3 ADD MSTORE POP JUMP JUMPDEST PUSH0 PUSH2 0x12EE PUSH1 0x1B DUP4 PUSH2 0xBBC JUMP JUMPDEST SWAP2 POP PUSH2 0x12F9 DUP3 PUSH2 0x12BA JUMP JUMPDEST PUSH1 0x20 DUP3 ADD SWAP1 POP SWAP2 SWAP1 POP JUMP JUMPDEST PUSH0 PUSH1 0x20 DUP3 ADD SWAP1 POP DUP2 DUP2 SUB PUSH0 DUP4 ADD MSTORE PUSH2 0x131B DUP2 PUSH2 0x12E2 JUMP JUMPDEST SWAP1 POP SWAP2 SWAP1 POP JUMP JUMPDEST PUSH0 PUSH2 0x132C DUP3 PUSH2 0x9FD JUMP JUMPDEST SWAP2 POP PUSH2 0x1337 DUP4 PUSH2 0x9FD JUMP JUMPDEST SWAP3 POP DUP3 DUP3 ADD SWAP1 POP DUP1 DUP3 GT ISZERO PUSH2 0x134F JUMPI PUSH2 0x134E PUSH2 0x124C JUMP JUMPDEST JUMPDEST SWAP3 SWAP2 POP POP JUMP JUMPDEST PUSH0 PUSH2 0x135F DUP3 PUSH2 0x9FD JUMP JUMPDEST SWAP2 POP PUSH2 0x136A DUP4 PUSH2 0x9FD JUMP JUMPDEST SWAP3 POP DUP3 DUP3 SUB SWAP1 POP DUP2 DUP2 GT ISZERO PUSH2 0x1382 JUMPI PUSH2 0x1381 PUSH2 0x124C JUMP JUMPDEST JUMPDEST SWAP3 SWAP2 POP POP JUMP INVALID LOG2 PUSH5 0x6970667358 0x22 SLT KECCAK256 0xDE PUSH11 0x1A75598C31F1608581E727 0xF6 0xC9 PUSH6 0xC79B0DDCFA53 0xCC 0xB8 0x4F 0xD DUP2 PUSH12 0x5F2A146664736F6C63430008 BYTE STOP CALLER "
				},
				"gasEstimates": {
					"creation": {
						"codeDepositCost": "1010800",
						"executionCost": "1045",
						"totalCost": "1011845"
					},
					"external": {
						"addBook(string,string,uint256)": "infinite",
						"books(uint256)": "infinite",
						"ownerBooks(address,uint256)": "infinite",
						"rentBook(uint256,uint256)": "infinite"
					}
				},
				"methodIdentifiers": {
					"addBook(string,string,uint256)": "04266224",
					"books(uint256)": "68744046",
					"ownerBooks(address,uint256)": "29646ee9",
					"rentBook(uint256,uint256)": "d43a4276"
				}
			},
			"storageLayout": {
				"storage": [
					{
						"astId": 20,
						"contract": "project-07/contracts/project.sol:BookRental",
						"label": "books",
						"offset": 0,
						"slot": "0",
						"type": "t_array(t_struct(Book)16_storage)dyn_storage"
					},
					{
						"astId": 25,
						"contract": "project-07/contracts/project.sol:BookRental",
						"label": "ownerBooks",
						"offset": 0,
						"slot": "1",
						"type": "t_mapping(t_address,t_array(t_uint256)dyn_storage)"
					}
				],
				"types": {
					"t_address": {
						"encoding": "inplace",
						"label": "address",
						"numberOfBytes": "20"
					},
					"t_array(t_struct(Book)16_storage)dyn_storage": {
						"base": "t_struct(Book)16_storage",
						"encoding": "dynamic_array",
						"label": "struct BookRental.Book[]",
						"numberOfBytes": "32"
					},
					"t_array(t_uint256)dyn_storage": {
						"base": "t_uint256",
						"encoding": "dynamic_array",
						"label": "uint256[]",
						"numberOfBytes": "32"
					},
					"t_bool": {
						"encoding": "inplace",
						"label": "bool",
						"numberOfBytes": "1"
					},
					"t_mapping(t_address,t_array(t_uint256)dyn_storage)": {
						"encoding": "mapping",
						"key": "t_address",
						"label": "mapping(address => uint256[])",
						"numberOfBytes": "32",
						"value": "t_array(t_uint256)dyn_storage"
					},
					"t_string_storage": {
						"encoding": "bytes",
						"label": "string",
						"numberOfBytes": "32"
					},
					"t_struct(Book)16_storage": {
						"encoding": "inplace",
						"label": "struct BookRental.Book",
						"members": [
							{
								"astId": 3,
								"contract": "project-07/contracts/project.sol:BookRental",
								"label": "owner",
								"offset": 0,
								"slot": "0",
								"type": "t_address"
							},
							{
								"astId": 5,
								"contract": "project-07/contracts/project.sol:BookRental",
								"label": "title",
								"offset": 0,
								"slot": "1",
								"type": "t_string_storage"
							},
							{
								"astId": 7,
								"contract": "project-07/contracts/project.sol:BookRental",
								"label": "author",
								"offset": 0,
								"slot": "2",
								"type": "t_string_storage"
							},
							{
								"astId": 9,
								"contract": "project-07/contracts/project.sol:BookRental",
								"label": "isAvailable",
								"offset": 0,
								"slot": "3",
								"type": "t_bool"
							},
							{
								"astId": 11,
								"contract": "project-07/contracts/project.sol:BookRental",
								"label": "rentalPrice",
								"offset": 0,
								"slot": "4",
								"type": "t_uint256"
							},
							{
								"astId": 13,
								"contract": "project-07/contracts/project.sol:BookRental",
								"label": "currentRenter",
								"offset": 0,
								"slot": "5",
								"type": "t_address"
							},
							{
								"astId": 15,
								"contract": "project-07/contracts/project.sol:BookRental",
								"label": "rentedUntil",
								"offset": 0,
								"slot": "6",
								"type": "t_uint256"
							}
						],
						"numberOfBytes": "224"
					},
					"t_uint256": {
						"encoding": "inplace",
						"label": "uint256",
						"numberOfBytes": "32"
					}
				}
			},
			"userdoc": {
				"kind": "user",
				"methods": {},
				"version": 1
			}
		}
	}
}